:100000000C9400380C9400380C9400380C94003890
:100010000C9400380C9400380C9400380C94003880
:100020000C9400380C9400380C9400380C94003870
:100030000C9400380C9400380C9400380C94003860
:100040000C9400380C9400380C9400380C94003850
:100050000C9400380C9400380C9400380C94003840
:100060000C9400380C9400380C9400380C94003830
:100070000C9400380C9400380C9400380C94003820
:100080000C9400380C9400380C9400380C94003810
:100090000C9448380C9400380C9400380C940038B8
:0C00A0000C9400380C9400380C940038CC
:106E0000CF93DF9300D000D0CDB7DEB79A838983CC
:106E10007C836B8389819A81FC018081882F90E03B
:106E20008231910571F08331910524F4863091050A
:106E300091F02FC083319105C1F084319105F9F0B3
:106E400028C02B813C8189819A81B9010E946A3ACC
:106E500080930A0121C02B813C8189819A81B901EB
:106E60000E94533780930A0117C02B813C8189818E
:106E70009A81B9010E94843A80930A010DC02B8146
:106E80003C8189819A81B9010E94943B80930A01D7
:106E900003C010920A0100000F900F900F900F9006
:106EA000DF91CF910895CF93DF9300D000D01F9250
:106EB000CDB7DEB79B838A837D836C8319828A81F9
:106EC0009B810396FC018081882F90E0382F222738
:106ED0008A819B810496FC018081882F90E0822B1F
:106EE000932B909308018093070180910701909163
:106EF00008018115FEE69F0738F460E086E00E94F5
:106F0000913781E0898304C060EC86E00E9491376C
:106F100089810F900F900F900F900F90DF91CF917C
:106F20000895CF93DF9300D0CDB7DEB789836A830E
:106F300082E090E00E94B2378981809389018A8142
:106F400080938A0167E070E084E891E00E94413C10
:106F500080938B0188E0809383010F900F90DF91E5
:106F6000CF910895CF93DF9300D0CDB7DEB79A834A
:106F700089838BE180938401809102018093850154
:106F800089819A81892F99278093860189818093AD
:106F900087018EE0809388010F900F90DF91CF9151
:026FA000089552
:107000000C944F390C946C390C946C390C946C3989
:107010000C946C390C946C390C946C390C946C395C
:107020000C946C390C946C390C946C390C946C394C
:107030000C946C390C946C390C946C390C946C393C
:107040000C946C390C946C390C946C390C946C392C
:107050000C946C390C946C390C946C390C946C391C
:107060000C946C390C946C390C946C390C946C390C
:107070000C946C390C946C390C946C390C946C39FC
:107080000C946C390C946C390C946C390C946C39EC
:107090000C94503D0C946C390C946C390C946C39F4
:1070A0000C946C390C946C390C946C39B13EB63E2E
:1070B000B63EB63EB63EB63EB63EB63EA23DB63E45
:1070C000B63EB63EB63EB63EB63EB63EA23DB63E35
:1070D000B63EB63EB63EB63EB63EB63EAC3DB63E1B
:1070E000B63EB63EB63EB63EB63EB63ED93DB63EDE
:1070F000B63EB63EB63EB63EB63EB63EAC3DB63EFB
:10710000B63EB63EB63EB63EB63EB63EDF3DB63EB7
:10711000B63EB63EB63EB63EB63EB63EE53DB63EA1
:10712000B63EB63EB63EB63EB63EB63EFB3DB63E7B
:10713000B63EB63EB63EB63EB63EB63E2B3EB63E3A
:10714000B63EB63EB63EB63EB63EB63EEB3DB63E6B
:10715000B63EB63EB63EB63EB63EB63E093EB63E3C
:10716000B63EB63EB63EB63EB63EB63E2E3EB63E07
:10717000B63EB63EB63EB63EB63EB63E2E3EB63EF7
:10718000B63EB63EB63EB63EB63EB63E2E3EB63EE7
:10719000B63EB63EB63EB63EB63EB63E2E3EB63ED7
:1071A000B63EB63EB63EB63EB63EB63E373EB63EBE
:1071B000B63EB63EB63EB63EB63EB63E733EB63E72
:1071C000B63EB63EB63EB63EB63EB63E373EB63E9E
:1071D000B63EB63EB63EB63EB63EB63E733EB63E52
:1071E000B63EB63EB63EB63EB63EB63E533EB63E62
:1071F000B63EB63EB63EB63EB63EB63E773EB63E2E
:10720000B63EB63EB63EB63EB63EB63E773EB63E1D
:10721000B63EB63EB63EB63EB63EB63E8D3EB63EF7
:10722000B63EB63EB63EB63EB63EB63EAB3EB63EC9
:10723000B63EB63EB63EB63EB63EB63EAB3EB63EB9
:10724000B63EB63EB63EB63EB63EB63EB63EB63E9E
:10725000B63EB63EB63EB63EB63EB63EB63EB63E8E
:10726000B63EB63EB63EB63EB63EB63EB63EB63E7E
:10727000B63EB63EB63EB63EB63EB63EB63EB63E6E
:10728000B63EB63EB63EB63EB63EB63EB63EB63E5E
:10729000B63EB63EB63EB63EB63EB63EB63E11240D
:1072A0001FBECFEFDAE0DEBFCDBF11E0A0E0B1E05E
:1072B000E0EBFFE702C005900D92A230B107D9F7CD
:1072C00021E0A2E0B1E001C01D92A63DB207E1F7C6
:1072D0000E946E390C94D63F0C940038CF93DF9304
:1072E000CDB7DEB78AE290E02AE230E0F9012081F2
:1072F0002F7BFC0120838BE290E02BE230E0F90150
:1073000020812064FC01208389E290E0FC018081DF
:10731000882F90E080749927009711F41092010152
:107320001092090110920A0142E050E062E070E020
:107330008BE091E00E94963F42E050E062E970E00D
:107340008DE091E00E94963F8CEF93E00E94A83F71
:107350009093100180930F018EEF93E00E94A83F5D
:10736000909312018093110180910101882371F49F
:10737000809111019091120190938201809381017B
:1073800080910F0190911001FC0109940E947A3CB8
:10739000809100010E94A43C81EE99E30E94EC3CA4
:1073A00082E09AE30E94FE3C789480910901882350
:1073B00039F0F8941092090178940E94243AF5CF9C
:1073C000F4CFCF93DF9300D000D0CDB7DEB79A8350
:1073D00089837C836B832B813C8189819A81A9017C
:1073E000BC0184E891E00E949F3F8B8180938301E0
:1073F00081E0809309010F900F900F900F90DF9123
:10740000CF910895CF93DF93CDB7DEB790910A0166
:1074100081E08927882361F060E080E00E94913755
:1074200080918301682F84E891E00E94B43C09C0F8
:1074300080918301682F84E891E00E94B43C10920F
:107440000A01DF91CF910895CF93DF931F92CDB7BB
:10745000DEB7809184018B3109F038C080918301BF
:10746000882F90E00197BC0184E891E00E94413CA4
:10747000898380918301882F90E001978C579E4FDC
:10748000FC0190818981981709F5809188018E30DF
:10749000E9F4809185018093020180918601882F13
:1074A00090E0382F222780918701882F90E0820F6B
:1074B000931F9093040180930301809103019091A5
:1074C0000401BC0189E891E00E9400370F90DF9130
:1074D000CF910895CF93DF9300D000D0CDB7DEB722
:1074E0009A8389837C836B83109206011092050135
:1074F00060E082E10E94913781E00F900F900F9041
:107500000F90DF91CF910895CF93DF93CDB7DEB782
:107510002C970FB6F894DEBF0FBECDBF9A87898730
:107520007C876B8789859A850196FC018081882FED
:1075300090E0382F222789859A850296FC01808168
:10754000882F90E0822B932B9A83898389859A8553
:107550000A969C838B8320910701309108018091CA
:107560000501909106012817390709F03FC0809165
:107570000501909106018138FDE69F0780F4809116
:107580000501909106010E94CA3E809105019091EB
:10759000060180589F4F90930601809305018091CA
:1075A0000701909108018038910500F18091070151
:1075B000909108018F3F910509F0C0F48CE08D8314
:1075C00084E98E8380910D0190910E018F838091CB
:1075D0000D0190910E01892F99278887CE0105967C
:1075E00044E050E060E970E00E94023F80910701B2
:1075F000909108010097E1F58B819C810296FC0136
:107600008081882F90E09093100180930F018B81EF
:107610009C810396FC018081882F90E0982F882719
:107620009C0180910F0190911001822B932B9093DC
:10763000100180930F018B819C81029620910B0198
:1076400030910C01FC0120838B819C810396209159
:107650000B0130910C01232F3327FC0120838091F3
:107660000F0190911001BC018CEF93E00E94AE3F9E
:10767000809107019091080180399105E1F58B8196
:107680009C810296FC018081882F90E090931201EA
:10769000809311018B819C810396FC018081882F4E
:1076A00090E0982F88279C01809111019091120100
:1076B000822B932B90931201809311018B819C81DB
:1076C000029620910D0130910E01FC0120838B81E7
:1076D0009C81039620910D0130910E01232F3327B9
:1076E000FC0120838091110190911201BC018EEF69
:1076F00093E00E94AE3F209107013091080149813B
:107700005A818B819C81B9010E94023F60E083E134
:107710000E94913781E02C960FB6F894DEBF0FBE21
:10772000CDBFDF91CF9108950F931F93CF93DF9338
:10773000CDB7DEB729970FB6F894DEBF0FBECDBF29
:107740009F838E837987688719828E819F810196B6
:10775000FC018081882F90E0382F22278E819F8125
:107760000296FC018081882F90E0822B932B9B83D3
:107770008A838A819B818131910508F076C081E0FE
:10778000898380910701909108012A813B81A90199
:10779000BC018BE891E00E94963F80910701909197
:1077A00008010097A1F48A819B818430910578F0CB
:1077B0008CEF93E00E94A83F9D838C838C81809303
:1077C0008D018C819D81892F992780938E018091D5
:1077D00007019091080180399105A1F48A819B816C
:1077E0008430910578F08EEF93E00E94A83F9D834E
:1077F0008C838C8180938D018C819D81892F992729
:1078000080938E0120910701309108018A819B812C
:10781000820F931F90930801809307018A819B81B7
:107820000E94B23784E18093890110928A018A8193
:107830009B8107968C579E4FFC0110828A819B8109
:107840008C01085F1F4F8A819B810796BC0184E8E9
:1078500091E00E94413C282FC8018C579E4FFC01AB
:1078600020838A81875F80938301898129960FB65F
:10787000F894DEBF0FBECDBFDF91CF911F910F9166
:107880000895CF93DF93CDB7DEB727970FB6F8945F
:10789000DEBF0FBECDBF9D838C837F836E838C81C3
:1078A0009D81FC0180818B8381E090E09A838983B4
:1078B00010C02C813D8189819A81820F931FFC0128
:1078C00080819B8189278B8389819A8101969A8304
:1078D000898329813A818E819F812817390748F34E
:1078E0008B8127960FB6F894DEBF0FBECDBFDF9118
:1078F000CF910895CF93DF93CDB7DEB710921301E8
:1079000081E0809315011092160189EB90E029EB3C
:1079100030E0F90120812E7FFC01208389EB90E08B
:1079200029EB30E0F90120812D7FFC01208388EBD9
:1079300090E028E4FC0120838CEB90E025E4FC013E
:107940002083DF91CF910895CF93DF931F92CDB71E
:10795000DEB789838AEB90E02981220FFC01208326
:107960000F90DF91CF910895CF93DF9300D000D097
:10797000CDB7DEB79B838A836C838C81813210F014
:1079800081E023C080911301843011F082E01DC09A
:107990008C8180935E01198213C08981882F90E0C9
:1079A0002981222F30E04A815B81240F351FF901A4
:1079B0002081835C9E4FFC01208389818F5F8983B6
:1079C00099818C81981748F380E00F900F900F9069
:1079D0000F90DF91CF910895CF93DF9300D0CDB773
:1079E000DEB79A83898389819A8190931A01809363
:1079F00019010F900F90DF91CF910895CF93DF93EE
:107A000000D0CDB7DEB79A83898389819A8190931C
:107A10001801809317010F900F90DF91CF91089577
:107A2000CF93DF931F92CDB7DEB7898389818823F7
:107A300031F08CEB90E025ECFC01208305C08CEB51
:107A400090E025E8FC0120830F90DF91CF9108950D
:107A5000CF93DF93CDB7DEB78CEB90E025EDFC0143
:107A6000208301C000008CEB90E0FC018081882F16
:107A700090E0807199270097A9F710921301DF9188
:107A8000CF910895CF93DF93CDB7DEB78CEB90E025
:107A900025ECFC01208310921301DF91CF91089512
:107AA0001F920F9200905F000F9211242F933F932B
:107AB0004F935F936F937F938F939F93AF93BF93F6
:107AC000EF93FF93CF93DF93CDB7DEB789E290E0DA
:107AD000FC018081882F90E0807499270097B9F489
:107AE0008EEF93E00E94A83F9093820180938101E2
:107AF00080918101909182019093D5018093D4016E
:107B00008091D4019091D501FC0109952FC189EB99
:107B100090E0FC018081882F90E0887F9927AA2738
:107B200097FDA095BA2F40E050E028EF30E0841B8D
:107B3000950B2817390708F419C18A5A974CFC018C
:107B40000C94903F8BEB90E020911401FC0120837A
:107B500081E00E94103D0AC190913B0180913C015F
:107B60009817A0F48BEB90E020913B0131E0320FAD
:107B700030933B01222F30E0255E3E4FF9012081FA
:107B8000FC01208381E00E94103D12C0809115010C
:107B9000882319F00E94283D0BC081E080931601D4
:107BA0008CEB90E024EAFC01208310921301DEC0EC
:107BB000DDC080E2809380010E94283DD7C080E331
:107BC000809380010E94283DD1C088E3809380018A
:107BD0000E94423DCBC080913B0191E0980F909371
:107BE0003B01882F90E02BEB30E0F9012081855E8E
:107BF0009E4FFC01208390913B0180913C0198179E
:107C000020F481E00E94103DB1C080E00E94103D50
:107C1000ADC080913B0191E0980F90933B01882F7C
:107C200090E02BEB30E0F9012081855E9E4FFC0156
:107C3000208380911501882319F00E94283D96C069
:107C400081E0809316018CEB90E024EAFC01208314
:107C5000109213018BC00E94283D88C083E080935E
:107C6000130110927F0181E00E94103D7FC080913E
:107C70007F018032A0F480917F0191E0980F909372
:107C80007F01882F90E02BEB30E0F9012081815AB1
:107C90009E4FFC01208381E00E94103D67C080E080
:107CA0000E94103D63C080917F01803240F480913A
:107CB0007F01882F90E0815A9E4FFC0110820E9424
:107CC000283D2091190130911A0180917F01882F60
:107CD00090E0BC018FE591E0F901099510927F01D8
:107CE0000E94423D43C080E00E94103D3FC084E0BE
:107CF0008093130110925D0110925E018091170133
:107D000090911801FC01099580915E01882329F466
:107D100081E080935E0110923D018BEB90E0209119
:107D20005D0131E0320F30935D01222F30E0235CA2
:107D30003E4FF9012081FC01208390915D018091EB
:107D40005E01981720F481E00E94103D0FC080E092
:107D50000E94103D0BC081E00E94103D1092130163
:107D600005C0109280010E94283D0000DF91CF9154
:107D7000FF91EF91BF91AF919F918F917F916F9103
:107D80005F914F913F912F910F9000925F000F9064
:107D90001F901895CF93DF9300D01F92CDB7DEB719
:107DA0009B838A838FE590E0FC0180818983F8942E
:107DB0008FE390E0FC018081882F90E0827099270A
:107DC0000097B1F723E08A819B81FC012093570043
:107DD000E89587E590E0FC018081882F90E0817034
:107DE00099270097B1F781E180935700E8958FE5D7
:107DF00090E02981FC0120830F900F900F90DF917C
:107E0000CF910895CF93DF93CDB7DEB763970FB6C9
:107E1000F894DEBF0FBECDBF9F878E87798B688BAE
:107E20005B8B4A8B888999899E838D838E859F85FC
:107E30009C838B838A899B899A8389838FE590E0D1
:107E4000FC0180818F83F8948FE390E0FC018081B6
:107E5000882F90E0827099270097B1F739C08B8105
:107E60009C819C012F5F3F4F3C832B83FC018081D1
:107E7000882F90E0998788878B819C819C012F5F58
:107E80003F4F3C832B83FC018081882F90E09B87B0
:107E90008A878A859B85382F222788859985822B1A
:107EA000932B9D878C8741E0888999892C853D8516
:107EB000FC01090140935700E895112488899989AC
:107EC0000296998B888B89819A8102979A838983FC
:107ED00089819A81009709F0C2CF25E08D819E812A
:107EE000FC0120935700E89587E590E0FC01808134
:107EF000882F90E0817099270097B1F781E18093F6
:107F00005700E8958FE590E02F81FC012083639670
:107F10000FB6F894DEBF0FBECDBFDF91CF910895AD
:107F2000EE0FFF1F0590F491E02D0994FB01DC0199
:107F300002C005900D9241505040D8F70895FB01C2
:107F4000DC0102C001900D9241505040D8F70895D5
:107F5000A8E1B0E042E050E00C94B63F0196272F34
:107F60000E94C53F0C94C43FDC01CB01FC01F99990
:107F7000FECF06C0F2BDE1BDF89A319600B40D9275
:107F800041505040B8F70895262FF999FECF92BD81
:107F900081BDF89A019700B4021639F01FBA20BDCE
:107FA0000FB6F894FA9AF99A0FBE0895F894FFCF95
:027FB0000101CD
:040000030000700089
:00000001FF
