:100000000BC1000036C1000034C1000032C1000045
:1000100030C100002EC100002CC100002AC1000028
:1000200028C1000026C1000024C1000022C1000038
:1000300020C100001EC100001CC100001AC1000048
:1000400018C1000016C1000014C1000012C1000058
:1000500010C100000EC100000CC100000C94D00EB5
:1000600008C100000C9422150C94721602C1000005
:1000700000C10000FEC00000FCC00000FAC000008B
:10008000F8C00000F6C00000F4C00000F2C000009C
:100090000C9462150C94B116ECC000000C941F0D6A
:1000A000E8C00000E6C00000E4C00000E2C00000BC
:1000B000E0C00000DEC00000DCC00000DAC00000CC
:1000C000D8C00000D6C00000D4C000000C94A21517
:1000D0000C94F016CEC000000C94E2150C942F176F
:1000E000C8C0000000002100240027002A002D00C5
:1000F0003000330001010000040107010A01000083
:100100002200250028002B002E00310034000201BF
:100110000000050108010B0100002000230026005B
:1001200029002C002F00320000010000030106010D
:10013000090105050505070508080808020202026D
:100140000A0A080804040404010101010101010173
:100150000303030303030303040707070C0C0C0C3E
:100160000C0C0C0C02020202060606060606060627
:100170000B0B0B0B0B0B0B0B0102102020080810B4
:100180002040102040800201020108040201010207
:1001900004081020408080402010080402018004E0
:1001A000020180402010080402010804020101023B
:1001B0000408102040800102040810204080000044
:1001C000090A02080B0C0D070603040100000000D9
:1001D000000000000000000000000000000000001F
:1001E0000000000000000000000011100F000000DF
:1001F00000000000000000000000000000000000FF
:10020000000000006364696E6F70737578585B005E
:10021000E504C70B9F18E00411241FBECFEFD1E205
:10022000DEBFCDBF00E00CBF12E0A0E0B2E0E6E42C
:10023000F9E300E00BBF02C007900D92A237B107AF
:10024000D9F71BBE15E0A2E7B2E001C01D92AF3F97
:10025000B107E1F712E0C6E1D2E004C02297FE0147
:100260000E94511CC031D107C9F70E94C7100C94DD
:10027000971CC6CE1F93FC0199278827BC01E894E0
:1002800011911032E9F3193010F01E30C8F31B320F
:1002900049F01D3241F4689405C06AD0610F711DA8
:1002A000811D911D119110531A30B8F33EF49095B1
:1002B0008095709561957F4F8F4F9F4F1F91089547
:1002C000FB01DC0102C001900D9241505040D8F773
:1002D00008956817790768F4FB01DC01E40FF51F46
:1002E000A40FB51F02C002900E9241505040D8F7A3
:1002F0000895E6CFFB01DC0101900D920020E1F7AB
:100300000895FB01DC014150504030F08D91019087
:10031000801919F40020B9F7881B990B0895FB0187
:10032000DC014150504048F001900D920020C9F787
:1003300001C01D9241505040E0F70895FB015191DA
:100340005523A9F0BF01DC014D9145174111E1F79B
:1003500059F4CD010190002049F04D914015411113
:10036000C9F3FB014111EFCF81E090E001970895BF
:10037000592F482F372F262F660F771F881F991F59
:10038000660F771F881F991F620F731F841F951FA9
:10039000660F771F881F991F0895AEE0B0E0E3ED68
:1003A000F1E00C94701C85E08C838C899D899A8384
:1003B00089839E01285E3F4FCE0101966E897F8919
:1003C000A9017CD12E96E2E00C948C1CFC0120FD4E
:1003D00008C023FD05C022FF02C0738362835183DE
:1003E00040830895EF92FF920F931F9344FF02C042
:1003F00033E011C046FF02C034E00DC0DB01FC0158
:10040000AA0FBB1FEE1FFF1F1094D1F76A0F7B1FAF
:100410008E1F9F1F31E0660F771F881F991F315075
:10042000D1F77B018C01E20EF11C011D111DA80109
:100430009701B701CA011F910F91FF90EF900895A6
:100440000F931F93CF93DF938C01C80147D2EC0128
:1004500097FD07C00E94551C892BB9F7CE01B80142
:100460007FD2CE01DF91CF911F910F910895A0E02F
:10047000B0E0EDE3F2E00C94681CEC01C62E5A01EA
:10048000122F2CD2AC018B3219F08D3249F4106846
:10049000CA9409F466C0CE0121D2AC0197FD61C0B7
:1004A0006DEFD62ED1228D2D8073F1F44033E1F41F
:1004B000CA9409F442C0CE0111D2AC0197FD3DC0EF
:1004C00082E0D82A483711F0483551F480E4D82A20
:1004D000CA9499F1CE0102D2AC0199232CF42DC01B
:1004E000D6FC02C080E1D82AEE24FF248701242F05
:1004F0002053283080F0D4FC09C02A3060F0D6FEAA
:1005000005C02F7D822F8151863020F0CA01BE01A7
:1005100027D210C02750C801B7014D2D63DF7B01E2
:100520008C0182E0D82ACA9459F0CE01D7D1AC010F
:1005300097FFDDCFD1FC04C014C0EE24FF24870157
:10054000D7FE08C010950095F094E094E11CF11CD2
:10055000011D111DC501B801A7012D2D37DF81E057
:1005600001C080E0CDB7DEB7EAE00C94841CA0E2C5
:10057000B0E0EDEBF2E00C94641C6C01A62E8A0155
:100580007901FE01319680E2DF011D928A95E9F73B
:1005900030E060E040E050E070E04F01A1E0B0E00A
:1005A000F6018381F70183FD259183FF21917F016E
:1005B000222309F47CC02E3519F44115510569F147
:1005C000872F90E08417950744F42D3551F12D3293
:1005D00021F4332329F431E021C0332309F4622FBD
:1005E000322F832F869586958695F401E80FF11DAD
:1005F000832F87703D0102C0660C771C8A95E2F755
:10060000208126292083361711F430E007C03617E1
:1006100010F43F5FE6CF3150E4CF71E04F5F5F4FA2
:10062000BFCF332319F08E8180628E83772359F0F8
:10063000FE0131969E012F5D3F4F80818095819311
:10064000E217F307D1F7BB24B3944E010894811C41
:10065000911CC60143D1AC0197FD21C086958695BA
:100660008695F401E80FF11D808190E09A012770D2
:10067000307002C0959587952A95E2F780FD04C0F9
:10068000CA01B6016DD10BC00115110519F0D801D1
:100690004D938D01AA94BB24AA20D9F602C0BB2099
:1006A00031F40115110529F0F801108202C0EE2481
:1006B000FF24C701A096EEE00C94801CA0E0B0E0FF
:1006C000E4E6F3E00C94641C5C016B013A01FC016C
:1006D000178216828824DEC0812F90E00E94551C6C
:1006E000892B19F0C501ACDED5C0153249F4F601ED
:1006F000F3FC6591F3FE61916F01653259F415E2E7
:10070000C501ECD097FDD2C0181709F4C3C0B501DC
:1007100027D1D1C06A3219F0162F00E006C0F3FCD1
:100720001591F3FE11916F0101E099240EC0026052
:10073000692D70E080E090E040E254DE962EF601F4
:10074000F3FC1591F3FE11916F01212F20532A30F4
:1007500070F301FD03C099249A9403C0992009F411
:10076000AAC0183621F01C3699F4F6010BC0F60128
:10077000F3FC6591F3FE6191683619F06F01162F55
:1007800007C008600460F3FC1591F3FE11916F013E
:10079000112309F490C084E092E0612F70E093D0BF
:1007A000892B09F488C0802F00FF03C0EE24FF24AA
:1007B00007C0F301E080F18022E030E0620E731E9A
:1007C0001E3649F4F5014681578160E070E0C701AB
:1007D000202FFCDD5FC0133689F481FD02C099240F
:1007E0009394C5017BD097FD61C0E114F10419F029
:1007F000F70181937F019A94A1F74AC01B3551F408
:10080000C501692DA7019601B2DE6C01009709F0C0
:100810003FC039C0C50114DE97FD48C01F3649F1FD
:10082000103728F4143619F1193629F525C0133775
:1008300019F0153701F51BC0C50150D0EC0197FD2B
:1008400010C00E94551C892B21F0CE01B50188D023
:1008500008C0E114F10419F0F701C1937F019A94E3
:1008600059F7E114F104A1F0F701108211C0006200
:1008700003C0006101C00064C501692DA701202FDC
:10088000F6DD882329F4F5018381807379F413C0A0
:1008900000FF8394F501F380F601F3FC1591F3FE5C
:1008A00011916F01112309F017CF05C0882019F4A9
:1008B0002FEF3FEF02C0282D30E0C901CDB7DEB7E2
:1008C000EEE00C94801CFC010590061621F000203F
:1008D000D9F7C00108953197CF010895CF93DF93E1
:1008E000EC014B8140FF1AC046FF0AC04F7B4B838F
:1008F0008E819F8101969F838E838A81282F2BC0B2
:1009000042FF13C0E881F9818081282F332727FD1A
:1009100030952115310529F440624B832FEF3FEFCD
:100920001BC03196F983E88311C0EA85FB85CE01AF
:1009300019959C0197FF0AC09B812F5F3F4F11F0D3
:1009400080E201C080E1892B8B83E8CF8E819F817B
:1009500001969F838E8330E0C901DF91CF91089586
:100960009C01FB01838180FF11C086FD0FC09FEFBA
:100970002F3F390759F0228380648F7D83838681DE
:10098000978101979783868330E002C02FEF3FEF76
:10099000C90108958130910549F46F5F7F4F79F463
:1009A00082E792E060E072E00C949513892B39F4B1
:1009B0006F5F7F4F21F482E792E00C942614089534
:1009C00080E090E06FEF7FEFE5CF81E090E06FEFA8
:1009D0007FEFE0CFDF92EF92FF920F931F93DF93B1
:1009E000CF93CDB7DEB7C054D0400FB6F894DEBF7A
:1009F0000FBECDBFD82E809187028F5F8093870274
:100A00009BE199838A835B834C838EE08D8305E031
:100A10009E012F5F3F4F08C0F901E00FF11DA60FA7
:100A2000B71F8C9180830F5F0550A02FB0E00B5F44
:100A3000A417B50788F39981F90102C0808198272E
:100A400031968E2F821B8017C8F310E07E01089428
:100A5000E11CF11CF701E00FF11F908380ED92E0A3
:100A60006D2D5BD60F5F1F4F80ED92E0B701A8019F
:100A7000A5D680ED92E061E000D790E0882309F4EC
:100A800091E0892FC05CDF4F0FB6F894DEBF0FBE38
:100A9000CDBFCF91DF911F910F91FF90EF90DF902D
:100AA0000895FF920F931F93CF93DF93282F8B010D
:100AB000F42E80ED92E0622FFED6C0E0D0E008C0B8
:100AC00080ED92E03DD6F801EC0FFD1F808321966A
:100AD00080ED92E02CD6892B99F74F2D50E0C4176A
:100AE000D50721F0A0E0B0E090E010C0A0E0B0E0B9
:100AF00090E09E012150304006C0F801EA0FFB1F34
:100B0000808198271196A217B307BCF3A00FB11FDD
:100B10008C91891711F080E005C080E0C417D507DB
:100B200009F481E0DF91CF911F910F91FF9008951B
:100B30001F93DF93CF93CDB7DEB7C055D0400FB62C
:100B4000F894DEBF0FBECDBF182F18165CF582E1FA
:100B5000898B81E08A8B1B8A1C8A1D8A1E8A812FC1
:100B6000BE016F5E7F4F46E050E034DF8130A1F47C
:100B7000812FBE016F5F7F4F48E093DF813049F4E2
:100B80008E81823179F49F81911191E081E08927F2
:100B90000AC081ED90E002C080ED90E090937A026F
:100BA0008093790280E0C05BDF4F0FB6F894DEBF20
:100BB0000FBECDBFCF91DF911F910895CF92DF92ED
:100BC000EF92FF920F931F93DF93CF93CDB7DEB7D2
:100BD000C055D0400FB6F894DEBF0FBECDBF082F72
:100BE0006A01790118160CF052C086E08983909151
:100BF0008802809189028A839B837C836D83802F06
:100C0000BE016F5F7F4F45E050E0E4DE813071F45C
:100C1000802FBE016F5E7F4F48E043DF8130B9F522
:100C20008E898630A1F58F89882389F584E18983AF
:100C3000FA821E2DEB821C82802FBE016F5F7F4FD8
:100C400044E050E0C7DE813011F565E070E080E0FF
:100C500090E00E94260F175F802FBE016F5E7F4FCE
:100C6000412F1FDF813099F4DE01589620E030E0FB
:100C700009C08D91F601E20FF31F9081981739F4A6
:100C80002F5F3F4F2E153F05A0F381E001C080E0AC
:100C9000C05BDF4F0FB6F894DEBF0FBECDBFCF9164
:100CA000DF911F910F91FF90EF90DF90CF9008950B
:100CB000DF92EF92FF920F931F93DF93CF93CDB705
:100CC000DEB7C055D0400FB6F894DEBF0FBECDBF23
:100CD000F82EE42ED52E890118160CF05DC086E0A2
:100CE000898B90918802809189028A8B9B8B7C8B67
:100CF0006D8B8F2DBE016F5E7F4F45E050E06ADE49
:100D0000813081F48F2DBE016F5F7F4F48E0C9DED7
:100D1000813009F041C08E81863009F03DC08F815D
:100D20008823D1F583E1898B1A8B0B8B1C8A1D8A52
:100D30001E8A1F8A188E198E1A8E2E2D3D2DC901DE
:100D4000DC01FE017196BF019F01200F311F03C01E
:100D50008D9182873196E217F307D1F7065F1F4F17
:100D60008F2DA80137DE8130B9F469E170E080E0B1
:100D700090E00E94260F8F2DBE016F5F7F4F48E0ED
:100D800090DE813049F48E81833131F490E08F819F
:100D9000882319F491E001C090E0892FC05BDF4FF8
:100DA0000FB6F894DEBF0FBECDBFCF91DF911F917C
:100DB0000F91FF90EF90DF900895EF92FF920F93C5
:100DC0001F930E94180F7B018C0180917E029091ED
:100DD0007F02A0918002B0918102A8019701281B97
:100DE000390B4A0B5B0B8091820290918302A09198
:100DF0008402B091850282179307A407B507B8F45F
:100E0000E0927E02F0927F020093800210938102B2
:100E100081E090918602891B80938602882319F0D5
:100E200089E261E002C089E260E00E9494101F91B3
:100E30000F91FF90EF9008954F925F926F927F9283
:100E40008F929F92AF92BF92CF92DF92EF92FF92DA
:100E50000F931F93DF93CF93CDB7DEB762970FB693
:100E6000F894DEBF0FBECDBF0091760210917702DD
:100E70000250104031E0E32EF12CCC24DD2423E09D
:100E8000822E912C8C0E9D1E91E0692E92E0792E7F
:100E90002E010894411C511C87E0A82EB12CAC0EE9
:100EA000BD1E2EC0A7017901C50162E772E00E9454
:100EB000C413C501B40144E050E020E030E00E94DA
:100EC0003F11C5010E94261400D000D0EDB7FEB737
:100ED0003196ADB7BEB712969C928E9211977382DF
:100EE00062825582448259DA89819A81C80ED91E5C
:100EF0008DB79EB706960FB6F8949EBF0FBE8DBFF6
:100F000097012E5F3F4FE016F10664F28E01035FFA
:100F10001F4FC80162E772E0A7010E94C413C80115
:100F2000B40144E050E020E030E00E943F11C801ED
:100F30000E94261400D000D0EDB7FEB73196ADB7B1
:100F4000BEB712969C928E92119781E092E09383A5
:100F500082835582448221DA8FEF90E0C826D92619
:100F60000894C11CD11C20E0BFEFCB22DD248DB73B
:100F70009EB706960FB6F8949EBF0FBE8DBF8981AF
:100F80009A81C816D90609F421E0822F62960FB61D
:100F9000F894DEBF0FBECDBFCF91DF911F910F91AF
:100FA000FF90EF90DF90CF90BF90AF909F908F9089
:100FB0007F906F905F904F900895EF92FF920F9304
:100FC0001F93DF93CF93CDB7DEB72C970FB6F8946E
:100FD000DEBF0FBECDBFFC01DB0149831A829B013E
:100FE0002E5F3F4F8481958128173907A0F58E0128
:100FF000095F1F4FC801BF01AD010E94C41343E048
:10100000E42EF12CEC0EFD1EC801B70144E050E0C7
:1010100020E030E00E943F11C8010E94261400D059
:1010200000D0EDB7FEB73196ADB7BEB71296FC92C1
:10103000EE92119781E092E093838283CE01019634
:1010400095838483AAD98DB79EB706960FB6F89478
:101050009EBF0FBE8DBF89812C960FB6F894DEBF60
:101060000FBECDBFCF91DF911F910F91FF90EF90F9
:101070000895823009F1833009F43CC0813011F0C9
:1010800080E0089583E795E064E072E00E94101527
:1010900089E160E00E94941064E670E080E090E0F6
:1010A000D5D689E161E00E94941064E670E080E0AA
:1010B00090E0CCD689E119C083E795E066E172E063
:1010C0000E94101588E160E00E94941064E670E0D0
:1010D00080E090E0BBD688E161E00E94941064E675
:1010E00070E080E090E0B2D688E160E00E94941069
:1010F00081E0089583E795E068E272E00E941015B0
:1011000087E160E00E94941064E670E080E090E087
:101110009DD687E161E00E94941064E670E080E073
:1011200090E094D687E160E0FFD781E008950F93C7
:101130001F9303E715E0C8016AE372E00E940E15F1
:101140006091790270917A02C8014AE050E00E94F1
:10115000FE14C80160E072E00E941015C8010E94F0
:101160004F181F910F9108950F931F9303E715E0F8
:10117000C80162E472E00E941015C8010E944F1875
:101180001F910F910895682F8A3021F08D3021F43E
:1011900081E0089580E0089582E792E00E94521372
:1011A00080E00895FF920F931F93DF93CF9300D0B9
:1011B00000D0CDB7DEB7BC018E010F5F1F4FC80155
:1011C0000E941E14C80167E070E040E0F6DEF82ED1
:1011D000C8010E9426148F2D26960FB6F894DEBF04
:1011E0000FBECDBFCF91DF911F910F91FF9008955A
:1011F000AF92BF92CF92DF92EF92FF920F931F9325
:10120000DF93CF93CDB7DEB72C970FB6F894DEBF40
:101210000FBECDBF5C018E010F5F1F4FC801B5012E
:101220000E941E14C80163E070E040E0C6DED82EC4
:10123000CC24C8010E94261457E0E52EF12CEC0EB8
:10124000FD1EC701B5010E941E14C70165E070E0D4
:1012500040E0B3DE082FC7010E94261410E00C29DD
:101260001D29C8012C960FB6F894DEBF0FBECDBF66
:10127000CF91DF911F910F91FF90EF90DF90CF9072
:10128000BF90AF900895AF92BF92CF92DF92EF924E
:10129000FF920F931F93DF93CF93CDB7DEB72C97B9
:1012A0000FB6F894DEBF0FBECDBF5C018E010F5F9D
:1012B0001F4FC801B5010E941E14C80169E070E00B
:1012C00040E07BDED82ECC24C8010E94261467E0C3
:1012D000E62EF12CEC0EFD1EC701B5010E941E1476
:1012E000C7016BE070E040E068DE082FC7010E9494
:1012F000261410E00C291D29C8012C960FB6F8946D
:10130000DEBF0FBECDBFCF91DF911F910F91FF9038
:10131000EF90DF90CF90BF90AF900895FF920F9322
:101320001F93DF93CF9300D000D0CDB7DEB7BC01C1
:101330008E010F5F1F4FC8010E941E14C80161E09B
:1013400070E040E03ADEF82EC8010E9426148F2D8E
:1013500026960FB6F894DEBF0FBECDBFCF91DF91BA
:101360001F910F91FF9008955F926F927F928F92DD
:101370009F92AF92BF92CF92DF92EF92FF920F9324
:101380001F93DF93CF93CDB7DEB7C855D0400FB6CC
:10139000F894DEBF0FBECDBF82E792E015D78E0175
:1013A0000F5F1F4FC80165E472E00E94951382E74A
:1013B00092E0B8010E94DD11F82EC8010E942614A7
:1013C000FF2009F498C038DD882309F416C1809104
:1013D0007D02882311F420E007C080917B02A8DB06
:1013E000282F882309F40AC110927D0280917B0284
:1013F000882309F403C18E01095F1F4FC80162E70A
:1014000072E00E941E14C80189DFF82EC8010E94F4
:1014100026148E01035F1F4FC80162E772E00E942D
:101420001E14C801E5DE3C01C8010E9426148E018D
:101430000D5E1F4FC80162E772E00E941E14C801D2
:10144000B1DE582EC8010E942614B9E48B2E912CCF
:101450008C0E9D1E09E010E0AF2CBB247501EE0C34
:10146000FF1CE00EF11EF9E1CF2ED12CCC0EDD1EBB
:1014700011C0C60162E772E00E941E14C601B801E5
:1014800040E09BDDF40181934F01C6010E942614C8
:101490000E5F1F4F0E151F0561F7552029F0F2E072
:1014A0005F1609F0A8C013C08E01075B1F4F809123
:1014B0007B02B301A8019501FBDB882309F49DC0E1
:1014C00080917B02B301A801950178DB8BC08E016E
:1014D000015E1F4FC80162E772E00E941E14C8013E
:1014E000D2DE92959F709093880210928902C80173
:1014F0000E94261480C08E010B5D1F4FC80167E457
:1015000072E00E94951382E792E0B80156D7F82E58
:10151000C8010E942614FF2079F18E01055D1F4F3E
:10152000C80167E472E00E949513E1E3EE2EF12C0E
:10153000EC0EFD1EC70160E072E00E94951382E789
:1015400092E0B801A70164D7C7010E942614C80120
:101550000E94261482E792E026D660937B0216163C
:1015600044F481E080937D021092890210928802F7
:1015700042C010927D0241C08E01095C1F4FC8011C
:1015800069E472E00E94951382E792E0B80115D7F2
:10159000F82EC8010E942614FF2031F18E01035C51
:1015A0001F4FC80169E472E00E94951373E4E72EAF
:1015B000F12CEC0EFD1EC70160E072E00E94951355
:1015C00082E792E0B801A70123D7C7010E94261441
:1015D000C8010E94261482E792E0E5D5862F609329
:1015E0007C0247DD282F0AC020E08091760290918E
:1015F0007702892B19F421E001C020E0822FC85A1C
:10160000DF4F0FB6F894DEBF0FBECDBFCF91DF9195
:101610001F910F91FF90EF90DF90CF90BF90AF9010
:101620009F908F907F906F905F900895C6DB07C06A
:1016300083E795E00E942618A6DD8093780283E771
:1016400095E00E94F4171816190694F38091780219
:10165000882321F188E261E067D586DE882331F0B6
:1016600083DD8AEF90E0A0E0B0E005C060DD84E6B5
:1016700090E0A0E0B0E08093820290938302A09378
:101680008402B09385021092780282E792E060E0D3
:1016900072E00E94AD1388E260E046C5089589E2D9
:1016A00061E08FD488E261E08CD489E161E089D483
:1016B00088E161E086D487E161E083D481E0D9DC10
:1016C00082E0D7DC83E0D5DC83E795E040E052ECB4
:1016D00061E070E00E946E1780ED92E0EED0109213
:1016E000780210927A021092790210927B02109284
:1016F0007D028AEF90E0A0E0B0E0809382029093B8
:101700008302A0938402B09385021092860282E73E
:1017100092E060E072E00C94AD1381E08093CF0220
:101720006093AC021092CD021092CE0208952091E7
:10173000AB0230E08091AA02281B3109C90108954B
:101740004091AA028091AB02481718F02FEF3FEFAB
:101750000AC0E42FF0E0E657FD4F8081282F30E0EB
:101760004F5F4093AA02C9010895E091AA028091B7
:10177000AB02E81718F0EFEFFFEF06C0F0E0E65716
:10178000FD4F8081E82FF0E0CF0108950895109279
:10179000D3021092D20288EE93E0A0E0B0E08093F2
:1017A000D4029093D502A093D602B093D70286E5D7
:1017B00092E09093D1028093D0020895CF92DF926D
:1017C000EF92FF920F931F93CF93DF937C016B01F6
:1017D0008A018091CF028823A1F0C0E0D0E00DC043
:1017E000D701ED91FC91D601AC0FBD1F0190F081A6
:1017F000E02DC7016C9119952196C017D10780F390
:1018000003C0CB01642F00D1C801DF91CF911F919C
:101810000F91FF90EF90DF90CF900895DF93CF93DB
:101820000F92CDB7DEB7FC0169838091CF02882388
:10183000C9F08091CE02803238F081E090E093834D
:10184000828320E030E014C08091CD02E82FF0E0E8
:10185000E355FD4F998190838F5F8093CD028093F4
:10186000CE0204C0CE01019661E0CED021E030E08E
:10187000C9010F90CF91DF9108950F93062F8091AA
:10188000AC026DEA72E04091CE0221E068D0109285
:10189000CD021092CE021092CF020F9108954132E4
:1018A00008F040E2862F6AE872E010D01092AA0297
:1018B0008093AB02089521E0F2CF1092AA02109219
:1018C000AB021092CD021092CE024EC2382F41329E
:1018D00010F040E042C08091DC028823E1F791E003
:1018E0009093DC022093DE028FEF809349031092E5
:1018F00004034150409305034F5F9093DD028091B4
:10190000DD02330F832B8093DD028091DF02813073
:1019100041F41092DF028091DD028093BB0085ECE0
:1019200001C085EE8093BC008091DC028130E1F340
:1019300080910403841710F44091040320E030E008
:101940000AC0FB01E20FF31FD901AC51BD4F8C91CE
:1019500080832F5F3F4F2417A0F3842F08950F93A8
:101960001F93582F122F413210F081E04AC080910E
:10197000DC028823E1F782E08093DC020093DE0240
:101980008FEF809349031092040340930503A4EE64
:10199000B2E0FB0102C081918D938E2F861B8417CC
:1019A000D0F31092DD028091DD02550F852B8093DC
:1019B000DD028091DF02813041F41092DF028091DC
:1019C000DD028093BB0085EC01C085EE8093BC00F6
:1019D000112321F08091DC028230E1F380914903F0
:1019E0008F3F11F480E00DC080914903803211F4E3
:1019F00082E007C080914903803311F084E001C088
:101A000083E01F910F910895482F613210F081E01B
:101A100008958091DC02843011F082E00895609393
:101A20002703A6E0B3E0842F9C01F90102C0819155
:101A30008D938E2F841B8617D0F380E008951F921C
:101A40000F920FB60F920BB60F9211242F933F9364
:101A50004F935F936F937F938F939F93AF93BF93B6
:101A6000EF93FF938091B90090E0887F907080366B
:101A7000910509F4F2C081369105CCF588329105C3
:101A800009F47BC089329105B4F48031910509F4E1
:101A90006FC0813191053CF4009709F447C1089764
:101AA00009F04FC165C08831910509F466C080977F
:101AB00009F047C182C08034910509F4A4C0813483
:101AC000910544F48033910509F482C0C89709F068
:101AD00038C189C08035910509F489C088359105E0
:101AE00009F496C08834910509F02BC1AEC088393D
:101AF000910509F413C189399105ECF488379105F2
:101B000009F4ABC0893791054CF48836910509F486
:101B1000A4C08037910509F014C19FC08838910591
:101B200009F4FCC08039910509F49DC08038910505
:101B300009F007C198C0803B910509F4C6C0813BFC
:101B400091054CF4803A910509F49FC0883A9105BB
:101B500009F0F7C0BAC0803C910509F4E3C0883CA5
:101B6000910509F4DFC0883B910509F0EAC0C2C0C5
:101B70008091DD028093BB00CFC0909104038091DF
:101B80000503981768F490910403E92FF0E0EC51F5
:101B9000FD4F80818093BB009F5F90930403BCC086
:101BA0008091DE02882309F44BC085ED8093BC0050
:101BB0008091BC0084FDFCCFC2C080E280934903C9
:101BC00085ED8093BC008091BC0084FDFCCFB7C044
:101BD00080E38093490385ED8093BC008091BC0035
:101BE00084FDFCCFACC088E3809349039BC0809107
:101BF00004039091BB00E82FF0E0EC51FD4F90837F
:101C00008F5F80930403909104038091050382C049
:101C1000809104039091BB00E82FF0E0EC51FD4F60
:101C200090838F5F809304038091DE02882341F0CC
:101C300085ED8093BC008091BC0084FDFCCF7FC00B
:101C400081E08093DF0284EA6EC085ED8093BC0062
:101C50008091BC0084FDFCCF72C083E08093DC02E5
:101C60001092480359C080914803803208F056C052
:101C7000809148039091BB00E82FF0E0E85DFC4FB5
:101C800090838F5F8093480347C0809148038032E0
:101C900030F4E0914803F0E0E85DFC4F108285ED00
:101CA0008093BC008091BC0084FDFCCF1092DC02CC
:101CB00060914803E091E202F091E30288E293E050
:101CC00070E01995109248032DC084E08093DC02E7
:101CD0001092260310922703E091E002F091E102B6
:101CE000199580912703882329F481E080932703A5
:101CF0001092060390912603E92FF0E0EA5FFC4F73
:101D000080818093BB009F5F909326039091260370
:101D100080912703981710F485EC01C085E8809323
:101D2000BC000FC085EC8093BC0009C01092490331
:101D300085ED8093BC008091BC0084FDFCCF1092A7
:101D4000DC02FF91EF91BF91AF919F918F917F91B5
:101D50006F915F914F913F912F910F900BBE0F901C
:101D60000FBE0F901F9018951092DC0281E08093B7
:101D7000DE021092DF0284E161E0D6D185E161E00C
:101D8000D3D1E9EBF0E080818E7F808380818D7FED
:101D9000808388E48093B80085E48093BC00089534
:101DA0001F920F920FB60F9211242F933F938F9390
:101DB0009F93AF93BF9380914E0390914F03A09157
:101DC0005003B0915103309152030196A11DB11DF2
:101DD000232F2D5F2D3720F02D570196A11DB11D0A
:101DE0002093520380934E0390934F03A09350038C
:101DF000B093510380914A0390914B03A0914C03FF
:101E0000B0914D030196A11DB11D80934A0390939B
:101E10004B03A0934C03B0934D03BF91AF919F919F
:101E20008F913F912F910F900FBE0F901F9018959B
:101E30008FB7F89420914E0330914F034091500397
:101E4000509151038FBFB901CA0108959B01AC01A4
:101E50007FB7F89480914A0390914B03A0914C0373
:101E6000B0914D0366B5A89B05C06F3F19F0019670
:101E7000A11DB11D7FBFBA2FA92F982F8827860FCC
:101E8000911DA11DB11D62E0880F991FAA1FBB1FE4
:101E90006A95D1F7BC012DC0FFB7F89480914A0331
:101EA00090914B03A0914C03B0914D03E6B5A89BD4
:101EB00005C0EF3F19F00196A11DB11DFFBFBA2F5C
:101EC000A92F982F88278E0F911DA11DB11DE2E02B
:101ED000880F991FAA1FBB1FEA95D1F7861B970B86
:101EE000885E9340C8F221503040404050406851D5
:101EF0007C4F211531054105510571F608957894FF
:101F000084B5826084BD84B5816084BD85B58260FE
:101F100085BD85B5816085BDEEE6F0E0808181609C
:101F20008083E1E8F0E0108280818260808380819C
:101F300081608083E0E8F0E0808181608083E1EB74
:101F4000F0E0808184608083E0EBF0E0808181605C
:101F50008083E1E9F0E0808182608083808181601C
:101F60008083E0E9F0E0808181608083E1EAF0E055
:101F7000808182608083808181608083E0EAF0E0FC
:101F8000808181608083E1E2F1E0808182608083F2
:101F9000808181608083E0E2F1E0808181608083E4
:101FA000EAE7F0E0808184608083808182608083C2
:101FB0008081816080838081806880831092C100ED
:101FC0000895CF93DF93482F50E0CA0188589E4F61
:101FD000FC0134914E5C5E4FFA018491882369F1D3
:101FE00090E0880F991FFC01EC51FF4FA591B4912F
:101FF000FC01E250FF4FC591D491662351F42FB7F5
:10200000F8948C91932F909589238C9388818923C0
:102010000BC0623061F42FB7F8948C91932F909598
:1020200089238C938881832B88832FBF06C09FB719
:10203000F8948C91832B8C939FBFDF91CF9108955F
:10204000893009F449C08A30A0F4843051F18530D8
:1020500040F4823079F1833000F5813009F063C0BB
:1020600026C0873079F1883098F5863009F05BC05A
:1020700025C08D3009F442C08E3028F48B30B1F188
:102080008C30C0F52DC0803109F442C0813109F493
:1020900045C08F3009F047C037C0809180008F77EE
:1020A00003C0809180008F7D80938000089584B567
:1020B0008F7702C084B58F7D84BD08958091B00074
:1020C0008F7703C08091B0008F7D8093B00008951A
:1020D000809190008F7707C0809190008F7D03C022
:1020E00080919000877F8093900008958091A00058
:1020F0008F7707C08091A0008F7D03C08091A000E2
:10210000877F8093A0000895809120018F7703C07E
:10211000809120018F7D809320010895809120017E
:10212000877F809320010895FF920F931F93F62ECF
:10213000482F50E0CA0182549E4FFC012491CA01ED
:1021400088589E4FFC0114914E5C5E4FFA01049139
:102150000023C1F0222311F0822F72DFE02FF0E084
:10216000EE0FFF1FE250FF4FA591B4919FB7F89477
:10217000FF2021F48C911095812302C08C91812B3A
:102180008C939FBF1F910F91FF9008950895CF9357
:10219000DF93B5DEFBDF83DAC1E2D6E147DA2097D1
:1021A000E9F34FD5FBCFFC0180819181009729F4A1
:1021B00020E030E040E050E004C00E943A019B0182
:1021C000AC01B901CA010895CF92DF92EF92FF925C
:1021D0000F931F93CF93DF936C01DC01ED90FC9084
:1021E0001197E114F10409F441C01496CD91DC91EA
:1021F00015972097D9F1870102C00F5F1F4FF80193
:102200008081992787FD90950E94551C892BA9F7FD
:102210002197CE0DDF1D01C021978881992787FD69
:1022200090950E94551C892B19F0C017D107A0F773
:10223000FE013196E01BF10BD6011596FC93EE934F
:1022400014972D913C912017310728F4C901B8014A
:10225000AF010E946001D601ED91FC911197149697
:102260008D919C911597E80FF91F1082DF91CF9106
:102270001F910F91FF90EF90DF90CF9008950F93F3
:102280001F93CF93DF93FC018B0141155105F9F0AA
:1022900061157105E1F0848195812817390718F0DF
:1022A000FB01108214C041505040EC01C21BD30B03
:1022B0004C175D0708F4EA0160817181620F731F9A
:1022C000C801AE010E948F01C00FD11F1882DF919B
:1022D000CF911F910F910895AF92BF92CF92DF924D
:1022E000EF92FF920F931F93CF93DF93FC015B015B
:1022F0007A01DB0114962D913C911597211531053A
:1023000059F184819581009739F18217930720F163
:102310004817590720F07C010894E108F108008172
:102320001181C801CFEFDFEF6801CE0CDF1C10C0B8
:10233000F501608171810E949E019C01009771F0FE
:10234000801B910BE816F90608F0EC01C901019613
:10235000C816D90668F702C0CFEFDFEFCE01DF91D4
:10236000CF911F910F91FF90EF90DF90CF90BF9092
:10237000AF900895FC01DB0114962D913C911597C7
:1023800084819581821B930B84179507A0F080812F
:102390009181009781F06D917C916115710559F0E3
:1023A000840F951FA9010E9481019C0180E0232BCD
:1023B00019F481E0089580E00895FC01DB01248197
:1023C000358114968D919C9115972817390710F433
:1023D00080E00895CF0140E050E0CCCF0F931F93F1
:1023E000CF93DF93EC018B016F5F7F4F88819981E1
:1023F0000E940A1B009711F480E005C0998388832E
:102400001B830A8381E0DF91CF911F910F91089583
:102410002F923F924F925F926F927F928F929F92F4
:10242000AF92BF92CF92DF92EF92FF920F931F93E2
:10243000CF93DF935C012B014A01DC0114960D91CF
:102440001C9115970115110509F4D2C0FB01C48038
:10245000D580C114D10409F4CBC0DA0114966D9073
:102460007C9015976C187D08FC01E080F180611468
:10247000710491F01BC0D4016C9111967C9111975D
:1024800014964D915C9115978C2F0E946001F40178
:10249000E480F580EC0EFD1ED2016D917C91C701A8
:1024A0000E949E01EC01009731F7A2C077FE02C0A6
:1024B00067012EC0FB0120803180E8013CC08E0105
:1024C0000E191F09C601B701A8010E9460010C0D79
:1024D0001D1DD4016C9111967C91119714964D910C
:1024E0005C911597C8010E946001F401C480D580F9
:1024F000C00ED11ED2011496ED90FC901597EC0EF3
:10250000FD1EF50184819581860D971D9583848339
:10251000D2016D917C91C7010E949E01EC01009750
:1025200071F6C601B7010E947A0162C07B01EC0C12
:10253000FD1CC60DD71DC701B1010E949E01BC0143
:102540000097A1F7C017D10709F452C0F5018281A5
:1025500093818C179D0708F042C0C501BE013EDF84
:102560008823E9F545C0C501B201A901B5DEEC013A
:1025700097FD3EC0D5016D917C911197F201848148
:1025800095818C0F9D1F680F791F14964D915C915A
:102590001597481B590BCB01860D971D0E946901A9
:1025A000D50114968D919C911597860D971D1596C2
:1025B0009C938E931497ED91FC911197E80FF91F5E
:1025C00010822D913C912C0F3D1FF401608171818F
:1025D00044815581C9010E9460019E0105C0D50159
:1025E00014962D913C9115972150304037FFBBCF69
:1025F000DF91CF911F910F91FF90EF90DF90CF90DF
:10260000BF90AF909F908F907F906F905F904F9012
:102610003F902F900895CF93DF93EC0188819981AB
:10262000892B29F08A819B818617970758F4CE0160
:10263000D5DE882341F08C819D81892B19F4E881B6
:10264000F981108281E0DF91CF910895EF92FF929E
:102650000F931F93CF93DF93EC017B016C817D81FE
:10266000E114F104B9F04115510591F08A01060F0A
:10267000171FB801D0DF882369F0888199812C81E8
:102680003D81820F931FB7010E947A011D830C8345
:1026900081E001C080E0DF91CF911F910F91FF9009
:1026A000EF900895DF93CF930F920F92CDB7DEB7DF
:1026B00069831A82BE016F5F7F4F41E050E0C6DF41
:1026C0000F900F90CF91DF910895CF93DF93EC019E
:1026D00088819981009709F005D7198218821D8297
:1026E0001C821B821A82DF91CF910895EF92FF9294
:1026F0000F931F93CF93DF93EC017B018A01BA0103
:102700008ADF882319F4CE01E0DF07C01D830C8324
:1027100088819981B7010E947A01CE01DF91CF9122
:102720001F910F91FF90EF900895CF93DF93EC01ED
:10273000198218821B821A821D821C826115710502
:1027400049F0DB010D900020E9F71197A61BB70BAC
:10275000AD01CCDFDF91CF9108950F931F93182F18
:10276000092F6115710551F0DB010D900020E9F78B
:102770001197A61BB70BAD01B9DF01C0A6DF812FF2
:10278000902F1F910F910895BF92CF92DF92EF92F9
:10279000FF920F931F93CF93DF93082FB92E6B01F6
:1027A0007A01E9012417350710F4EA017901802F35
:1027B0009B2D6BE472E0B9DFD60114968D919C914C
:1027C00015978E159F05C8F08C179D0708F4EC012E
:1027D000D601ED91FC911197EC0FFD1F1081108235
:1027E0006D917C916E0D7F1D802F9B2DB6DFD601E4
:1027F000ED91FC91EC0FFD1F1083802F9B2DDF913D
:10280000CF911F910F91FF90EF90DF90CF90BF90ED
:102810000895CF93DF93EC01FB018617970751F0E2
:10282000608171816115710521F0448155815EDF00
:1028300001C04BDFCE01DF91CF910895FC011182E1
:1028400010821382128215821482E3CFFC018081F0
:10285000918148C6CF92DF92EF92FF920F931F9320
:10286000CF93DF937C016B018A01C0E0D0E00FC001
:10287000D6016D916D01D701ED91FC910190F08130
:10288000E02DC7011995C80FD91F0150104001153F
:10289000110571F7CE01DF91CF911F910F91FF903C
:1028A000EF90DF90CF900895EF92FF920F931F93D8
:1028B0008C01DC01ED91FC910190F081E02D6DE047
:1028C00019957C01D801ED91FC910190F081E02DEA
:1028D000C8016AE019959C012E0D3F1DC9011F9189
:1028E0000F91FF90EF900895CF93DF93EC01611566
:1028F000710519F420E030E00FC0DB010D900020DD
:10290000E9F71197A61BB70BE881F9810280F381E3
:10291000E02DAD0119959C01C901DF91CF9108957A
:102920004F925F927F928F929F92AF92BF92CF927F
:10293000DF92EF92FF920F931F93DF93CF93CDB768
:10294000DEB7A1970FB6F894DEBF0FBECDBF2C0146
:10295000742ECB01223008F42AE019A231E2C32EF2
:10296000D12CCC0EDD1E822E9924AA24BB24672DE7
:10297000752FA50194015DD779018A01C801B701BE
:10298000A501940124D7472D461B0894C108D108FE
:102990004A3014F4405D01C0495CF6014083E11403
:1029A000F1040105110521F07E2C5F2DC801DFCF58
:1029B000C201B60199DFA1960FB6F894DEBF0FBE33
:1029C000CDBFCF91DF911F910F91FF90EF90DF90DE
:1029D000CF90BF90AF909F908F907F905F904F90DF
:1029E0000895DC012115310541F4ED91FC91019030
:1029F000F081E02D642F1995089592CFEF92FF9208
:102A00000F931F939A017B0100E010E0B801A7012A
:102A1000E8DF1F910F91FF90EF90089565CF089523
:102A2000EF92FF920F931F937C015EDF8C01C70131
:102A30003BDF080F191FC8011F910F91FF90EF9006
:102A4000089508951F920F920FB60F920BB60F9232
:102A500011242F933F934F938F939F93EF93FF9363
:102A60008091C00082FD1DC04091C600209193035B
:102A7000309194032F5F3F4F2F73307080919503F7
:102A8000909196032817390771F0E0919303F09124
:102A90009403ED5AFC4F40833093940320939303A7
:102AA00002C08091C600FF91EF919F918F914F914D
:102AB0003F912F910F900BBE0F900FBE0F901F9064
:102AC000189508951F920F920FB60F920BB60F92A2
:102AD00011242F933F934F938F939F93EF93FF93E3
:102AE0008091C80082FD1DC04091CE0020911B0442
:102AF00030911C042F5F3F4F2F73307080911D0465
:102B000090911E042817390771F0E0911B04F09191
:102B10001C04E552FC4F408330931C0420931B049B
:102B200002C08091CE00FF91EF919F918F914F91C4
:102B30003F912F910F900BBE0F900FBE0F901F90E3
:102B4000189508951F920F920FB60F920BB60F9221
:102B500011242F933F934F938F939F93EF93FF9362
:102B60008091D00082FD1DC04091D6002091A30429
:102B70003091A4042F5F3F4F2F7330708091A504D4
:102B80009091A6042817390771F0E091A304F09101
:102B9000A404ED59FB4F40833093A4042093A30475
:102BA00002C08091D600FF91EF919F918F914F913C
:102BB0003F912F910F900BBE0F900FBE0F901F9063
:102BC000189508951F920F920FB60F920BB60F92A1
:102BD00011242F933F934F938F939F93EF93FF93E2
:102BE0008091300182FD1DC04091360120912B055E
:102BF00030912C052F5F3F4F2F73307080912D0542
:102C000090912E052817390771F0E0912B05F0916E
:102C10002C05E551FB4F408330932C0520932B0569
:102C200002C080913601FF91EF919F918F914F915A
:102C30003F912F910F900BBE0F900FBE0F901F90E2
:102C40001895E0917F05F0918005E05CFF4F819140
:102C5000919120813181805C9F4F821B930B60E4B6
:102C600070E0D4D5892B09F0ECDEE091A105F0915C
:102C7000A205E05CFF4F8191919120813181805CC0
:102C80009F4F821B930B60E470E0C0D5892B09F045
:102C900018DFE091C305F091C405E05CFF4F81911E
:102CA000919120813181805C9F4F821B930B60E466
:102CB00070E0ACD5892B09F044DFE091E505F09197
:102CC000E605E05CFF4F8191919120813181805C2C
:102CD0009F4F821B930B60E470E098D5892B09F01D
:102CE00070CF08951F920F920FB60F920BB60F92EE
:102CF00011242F933F938F939F93EF93FF932091F2
:102D0000D7033091D8038091D9039091DA03281723
:102D1000390731F48091C1008F7D8093C10014C0C8
:102D2000E091D903F091DA03E956FC4F20818091BC
:102D3000D9039091DA0301968F7390709093DA0320
:102D40008093D9032093C600FF91EF919F918F91BB
:102D50003F912F910F900BBE0F900FBE0F901F90C1
:102D600018951F920F920FB60F920BB60F92112467
:102D70002F933F938F939F93EF93FF9320915F0443
:102D800030916004809161049091620428173907A2
:102D900031F48091C9008F7D8093C90014C0E09107
:102DA0006104F0916204E15EFB4F20818091610437
:102DB0009091620401968F73907090936204809357
:102DC00061042093CE00FF91EF919F918F913F91ED
:102DD0002F910F900BBE0F900FBE0F901F90189564
:102DE0001F920F920FB60F920BB60F9211242F93D2
:102DF0003F938F939F93EF93FF932091E70430913C
:102E0000E8048091E9049091EA042817390731F425
:102E10008091D1008F7D8093D10014C0E091E904AE
:102E2000F091EA04E955FB4F20818091E9049091EB
:102E3000EA0401968F7390709093EA048093E904FA
:102E40002093D600FF91EF919F918F913F912F9109
:102E50000F900BBE0F900FBE0F901F9018951F92F2
:102E60000F920FB60F920BB60F9211242F933F9330
:102E70008F939F93EF93FF9320916F05309170058F
:102E800080917105909172052817390731F480916E
:102E900031018F7D8093310114C0E0917105F09173
:102EA0007205E15DFA4F2081809171059091720564
:102EB00001968F73907090937205809371052093A3
:102EC0003601FF91EF919F918F913F912F910F903C
:102ED0000BBE0F900FBE0F901F901895AF92BF9230
:102EE000DF92EF92FF920F931F93CF93DF93EC014A
:102EF0007A018B01DD24403081EE580780E06807BD
:102F000080E0780711F0DD24D39491E0A92EB12C54
:102F1000EC89FD89DD2069F0C50108A002C0880F99
:102F2000991F0A94E2F7808360E079E08DE390E0F6
:102F300005C0108260E874E88EE190E0A801970176
:102F400078D42150304040405040569547953795B1
:102F5000279580E12030380720F0DD2011F0DD24B6
:102F6000D7CFE889F9893083EA89FB89208319A2C0
:102F7000EE89FF89408121E030E0C9010C8C02C05C
:102F8000880F991F0A94E2F7482B4083EE89FF8946
:102F90004081C9010D8C02C0880F991F0A94E2F785
:102FA000482B4083EE89FF894081C9010E8C02C005
:102FB000880F991F0A94E2F7482B4083EE89FF8916
:102FC00080810F8C02C0220F331F0A94E2F72095F4
:102FD00028232083DF91CF911F910F91FF90EF90D5
:102FE000DF90BF90AF900895DC011C96ED91FC91AD
:102FF0001D97E05CFF4F8191919120813181805C30
:103000009F4F821B930B60E470E000C4DC011C96B0
:10301000ED91FC911D97E05CFF4F20813181E054E0
:10302000F040DF01AE5BBF4F8D919C911197281747
:10303000390719F42FEF3FEF07C08D919C91E80FEE
:10304000F91F8081282F30E0C9010895DC011C960A
:10305000ED91FC911D97E05CFF4F20813181E054A0
:10306000F040DF01AE5BBF4F8D919C911197281707
:10307000390719F42FEF3FEF10C08D919C911197F4
:10308000E80FF91F20818D919C91119701968F7304
:10309000907011969C938E9330E0C9010895DC01E5
:1030A00091968C919197882339F05496ED91FC91EB
:1030B0005597808186FFF9CF91961C920895CF9302
:1030C000DF93EC01EE85FF85E05CFF4F20813181CD
:1030D000E054F0402F5F3F4F2F733070DF01AE5B45
:1030E000BF4F8D919C91119728173907D1F3E05C60
:1030F000FF4F80819181E054F040E80FF91F608319
:10310000EE85FF85E05CFF4F31832083EE89FF89E8
:10311000208181E090E00F8C02C0880F991F0A94F3
:10312000E2F7282B208381E089A3EC89FD89808147
:103130008064808381E090E0DF91CF9108951F93B8
:10314000109276051092750528EE33E040E050E0CD
:1031500020937705309378054093790550937A054D
:1031600066E672E0709374056093730583E593E0FF
:103170009093800580937F0587E993E09093820583
:103180008093810585EC90E090938405809383057E
:1031900084EC90E0909386058093850580EC90E028
:1031A000909388058093870581EC90E090938A0541
:1031B0008093890582EC90E090938C0580938B0539
:1031C00086EC90E090938E0580938D0514E010932B
:1031D0008F05B3E0B0939005A7E0A0939105F5E0CB
:1031E000F0939205E1E0E093930510929805109218
:1031F00097052093990530939A0540939B0550932A
:103200009C0570939605609395058BED93E09093E4
:10321000A2058093A1058FE194E09093A40580938B
:10322000A3058DEC90E09093A6058093A5058CEC0A
:1032300090E09093A8058093A70588EC90E0909388
:10324000AA058093A90589EC90E09093AC05809342
:10325000AB058AEC90E09093AE058093AD058EECC3
:1032600090E09093B0058093AF051093B105B093B3
:10327000B205A093B305F093B405E093B5051092A1
:10328000BA051092B9052093BB053093BC05409355
:10329000BD055093BE057093B8056093B70583E6EE
:1032A00094E09093C4058093C30587EA94E09093DB
:1032B000C6058093C50585ED90E09093C805809381
:1032C000C70584ED90E09093CA058093C90580ED11
:1032D00090E09093CC058093CB0581ED90E09093A6
:1032E000CE058093CD0582ED90E09093D00580933C
:1032F000CF0586ED90E09093D2058093D105109391
:10330000D305B093D405A093D505F093D605E093EB
:10331000D7051092DC051092DB052093DD05309374
:10332000DE054093DF055093E0057093DA05609366
:10333000D9058BEE94E09093E6058093E5058FE246
:1033400095E09093E8058093E70585E391E09093FD
:10335000EA058093E90584E391E09093EC0580937E
:10336000EB0580E391E09093EE058093ED0581E31A
:1033700091E09093F0058093EF0582E391E09093C4
:10338000F2058093F10586E391E09093F405809334
:10339000F3051093F505B093F605A093F705F093A8
:1033A000F805E093F9051F9108950F931F93CF93AC
:1033B000DF93BC018230910510F462E070E0E0918F
:1033C000FD05F091FE05A0E0B0E040E050E024C033
:1033D0008081918186179707D0F08617970771F43F
:1033E00082819381109729F013969C938E93129764
:1033F0002CC09093FE058093FD0527C04115510513
:1034000019F08417950718F4EF018D01AC01DF0165
:10341000828193819C01F9013097D1F641155105C4
:10342000F9F0CA01861B970B8430910580F48A81DC
:103430009B810115110521F0F8019383828304C05B
:103440009093FE058093FD05FE01329645C0FE0176
:10345000E80FF91F619371930297998388833CC0A9
:103460008091FB059091FC05892B41F480914E02DF
:1034700090914F029093FC058093FB054091500280
:10348000509151024115510541F44DB75EB78091FD
:103490004C0290914D02481B590B2091FB05309135
:1034A000FC0524173507B0F4CA01821B930B86175D
:1034B000970780F0AB014E5F5F4F8417950750F080
:1034C000420F531F5093FC054093FB05F901619394
:1034D000719302C0E0E0F0E0CF01DF91CF911F9146
:1034E0000F910895CF93DF939C01009709F48FC04B
:1034F000EC0122971B821A826091FD057091FE05F6
:103500006115710581F488819981820F931F209143
:10351000FB053091FC052817390739F5D093FC05D8
:10352000C093FB0574C0DB0140E050E0AC17BD0761
:1035300008F1BB83AA83FE0121913191E20FF31FB1
:10354000AE17BF0779F48D919C911197280F391F01
:103550002E5F3F4F3983288312968D919C9113974C
:103560009B838A834115510571F4D093FE05C09366
:10357000FD054DC012968D919C911397AD0100975A
:1035800011F0DC01D3CFDA011396DC93CE931297BE
:10359000FA0121913191E20FF31FCE17DF0769F491
:1035A00088819981280F391F2E5F3F4FFA0131839F
:1035B00020838A819B8193838283E0E0F0E0DB01BA
:1035C00012968D919C911397009719F0BC01FD0103
:1035D000F6CFAB014E5F5F4FDB018D919C91840F65
:1035E000951F2091FB053091FC052817390779F4C8
:1035F000309729F41092FE051092FD0502C0138247
:103600001282425050405093FC054093FB05DF91DD
:10361000CF9108956F927F928F929F92AF92BF92B7
:10362000CF92DF92EF92FF920F931F93CF93DF938E
:103630008C01009721F4CB01B8DE8C01B8C08EEF6D
:10364000E82E8FEFF82EE00EF11E4801860E971E31
:103650008E149F0408F4A9C0D7014D915C91119775
:1036600046175707B0F04530510508F4A0C0CA010D
:1036700004978617970708F49AC042505040461B9B
:10368000570BF401419351936D937C93CF012ADF43
:103690008EC05B01A41AB50A3801640E751EA09194
:1036A000FD05B091FE05CC24DD24E0E0F0E047C04C
:1036B000A615B705A9F5CD91DC911197CE0102961B
:1036C0008A159B0568F1CE018A199B09029612960C
:1036D0002C91129713963C91059758F0F401228390
:1036E0003383CA19DB09D183C083D7016D937C93DF
:1036F00009C04E5F5F4F4C0F5D1FF7015183408340
:10370000C901FC01C114D10431F0D6011396FC9318
:10371000EE9312974CC0F093FE05E093FD0547C071
:103720008D919C911197E817F90708F4FC016D0140
:1037300012968C91129713969C919C01D901109727
:1037400009F0B6CF8091FB059091FC058615970591
:10375000E9F4E617F707D0F42091500230915102B6
:103760002115310541F42DB73EB780914C0290915F
:103770004D02281B390B82169306B8F49092FC0573
:103780008092FB05F7017183608311C0CB010DDED0
:10379000EC01009751F0D7014D915C91B8010E9466
:1037A0006001C8019FDE8E0102C000E010E0C80188
:1037B000DF91CF911F910F91FF90EF90DF90CF900D
:1037C000BF90AF909F908F907F906F900895629F71
:1037D000D001739FF001829FE00DF11D649FE00D09
:1037E000F11D929FF00D839FF00D749FF00D659F6A
:1037F000F00D9927729FB00DE11DF91F639FB00D69
:10380000E11DF91FBD01CF011124089597FB092E79
:1038100007260AD077FD04D02ED006D000201AF457
:10382000709561957F4F0895F6F7909581959F4F1C
:103830000895A1E21A2EAA1BBB1BFD010DC0AA1FF1
:10384000BB1FEE1FFF1FA217B307E407F50720F009
:10385000A21BB30BE40BF50B661F771F881F991F84
:103860001A9469F760957095809590959B01AC01CD
:10387000BD01CF010895AA1BBB1B51E107C0AA1FC0
:10388000BB1FA617B70710F0A61BB70B881F991F01
:103890005A95A9F780959095BC01CD010895EE0F3A
:1038A000FF1F0590F491E02D1994911106C080320C
:1038B00019F089508550D0F70895992788270895E1
:1038C0002F923F924F925F926F927F928F929F9230
:1038D000AF92BF92CF92DF92EF92FF920F931F931E
:1038E000CF93DF93CDB7DEB7CA1BDB0B0FB6F894CF
:1038F000DEBF0FBECDBF19942A88398848885F84FF
:103900006E847D848C849B84AA84B984C884DF807F
:10391000EE80FD800C811B81AA81B981CE0FD11D63
:103920000FB6F894DEBF0FBECDBFED01089512E0D3
:10393000C6E1D2E003C0FE01B4DF2296C831D10750
:06394000D1F7F894FFCF5F
:1039460000257800526573657474696E6720736C20
:10395600617665203100526573657474696E6720FF
:10396600736C617665203200526573657474696E96
:103976006720736C6176652033004552524F523A88
:1039860020004F4B003A0025002300008000FF0571
:103996000000000000000E0CDE0B970BA00BB50B11
:1039A600C60B000000005F182A14F4172618061824
:0239B6004F18A8
:00000001FF
