:100000000BC1000036C1000034C1000032C1000045
:1000100030C100002EC100002CC100002AC1000028
:1000200028C1000026C1000024C1000022C1000038
:1000300020C100001EC100001CC100001AC1000048
:1000400018C1000016C1000014C1000012C1000058
:1000500010C100000EC100000CC100000C94300E55
:1000600008C100000C9443140C94931502C10000C5
:1000700000C10000FEC00000FCC00000FAC000008B
:10008000F8C00000F6C00000F4C00000F2C000009C
:100090000C9483140C94D215ECC000000C947F0CCB
:1000A000E8C00000E6C00000E4C00000E2C00000BC
:1000B000E0C00000DEC00000DCC00000DAC00000CC
:1000C000D8C00000D6C00000D4C000000C94C314F7
:1000D0000C941116CEC000000C9403150C9450160D
:1000E000C8C0000000002100240027002A002D00C5
:1000F0003000330001010000040107010A01000083
:100100002200250028002B002E00310034000201BF
:100110000000050108010B0100002000230026005B
:1001200029002C002F00320000010000030106010D
:10013000090105050505070508080808020202026D
:100140000A0A080804040404010101010101010173
:100150000303030303030303040707070C0C0C0C3E
:100160000C0C0C0C02020202060606060606060627
:100170000B0B0B0B0B0B0B0B0102102020080810B4
:100180002040102040800201020108040201010207
:1001900004081020408080402010080402018004E0
:1001A000020180402010080402010804020101023B
:1001B0000408102040800102040810204080000044
:1001C000090A02080B0C0D070603040100000000D9
:1001D000000000000000000000000000000000001F
:1001E0000000000000000000000011100F000000DF
:1001F00000000000000000000000000000000000FF
:10020000000000006364696E6F70737578585B005E
:10021000E504270BC017E00411241FBECFEFD1E285
:10022000DEBFCDBF00E00CBF12E0A0E0B2E0E8E826
:10023000F7E300E00BBF02C007900D92AA33B107AD
:10024000D9F71BBE15E0AAE3B2E001C01D92A63C9F
:10025000B107E1F712E0C6E1D2E004C02297FE0147
:100260000E94721BC031D107C9F70E94E80F0C949D
:10027000B81BC6CE1F93FC0199278827BC01E894C0
:1002800011911032E9F3193010F01E30C8F31B320F
:1002900049F01D3241F4689405C06AD0610F711DA8
:1002A000811D911D119110531A30B8F33EF49095B1
:1002B0008095709561957F4F8F4F9F4F1F91089547
:1002C000FB01DC0102C001900D9241505040D8F773
:1002D00008956817790768F4FB01DC01E40FF51F46
:1002E000A40FB51F02C002900E9241505040D8F7A3
:1002F0000895E6CFFB01DC0101900D920020E1F7AB
:100300000895FB01DC014150504030F08D91019087
:10031000801919F40020B9F7881B990B0895FB0187
:10032000DC014150504048F001900D920020C9F787
:1003300001C01D9241505040E0F70895FB015191DA
:100340005523A9F0BF01DC014D9145174111E1F79B
:1003500059F4CD010190002049F04D914015411113
:10036000C9F3FB014111EFCF81E090E001970895BF
:10037000592F482F372F262F660F771F881F991F59
:10038000660F771F881F991F620F731F841F951FA9
:10039000660F771F881F991F0895AEE0B0E0E3ED68
:1003A000F1E00C94911B85E08C838C899D899A8364
:1003B00089839E01285E3F4FCE0101966E897F8919
:1003C000A9017CD12E96E2E00C94AD1BFC0120FD2E
:1003D00008C023FD05C022FF02C0738362835183DE
:1003E00040830895EF92FF920F931F9344FF02C042
:1003F00033E011C046FF02C034E00DC0DB01FC0158
:10040000AA0FBB1FEE1FFF1F1094D1F76A0F7B1FAF
:100410008E1F9F1F31E0660F771F881F991F315075
:10042000D1F77B018C01E20EF11C011D111DA80109
:100430009701B701CA011F910F91FF90EF900895A6
:100440000F931F93CF93DF938C01C80147D2EC0128
:1004500097FD07C00E94761B892BB9F7CE01B80122
:100460007FD2CE01DF91CF911F910F910895A0E02F
:10047000B0E0EDE3F2E00C94891BEC01C62E5A01CA
:10048000122F2CD2AC018B3219F08D3249F4106846
:10049000CA9409F466C0CE0121D2AC0197FD61C0B7
:1004A0006DEFD62ED1228D2D8073F1F44033E1F41F
:1004B000CA9409F442C0CE0111D2AC0197FD3DC0EF
:1004C00082E0D82A483711F0483551F480E4D82A20
:1004D000CA9499F1CE0102D2AC0199232CF42DC01B
:1004E000D6FC02C080E1D82AEE24FF248701242F05
:1004F0002053283080F0D4FC09C02A3060F0D6FEAA
:1005000005C02F7D822F8151863020F0CA01BE01A7
:1005100027D210C02750C801B7014D2D63DF7B01E2
:100520008C0182E0D82ACA9459F0CE01D7D1AC010F
:1005300097FFDDCFD1FC04C014C0EE24FF24870157
:10054000D7FE08C010950095F094E094E11CF11CD2
:10055000011D111DC501B801A7012D2D37DF81E057
:1005600001C080E0CDB7DEB7EAE00C94A51BA0E2A5
:10057000B0E0EDEBF2E00C94851B6C01A62E8A0135
:100580007901FE01319680E2DF011D928A95E9F73B
:1005900030E060E040E050E070E04F01A1E0B0E00A
:1005A000F6018381F70183FD259183FF21917F016E
:1005B000222309F47CC02E3519F44115510569F147
:1005C000872F90E08417950744F42D3551F12D3293
:1005D00021F4332329F431E021C0332309F4622FBD
:1005E000322F832F869586958695F401E80FF11DAD
:1005F000832F87703D0102C0660C771C8A95E2F755
:10060000208126292083361711F430E007C03617E1
:1006100010F43F5FE6CF3150E4CF71E04F5F5F4FA2
:10062000BFCF332319F08E8180628E83772359F0F8
:10063000FE0131969E012F5D3F4F80818095819311
:10064000E217F307D1F7BB24B3944E010894811C41
:10065000911CC60143D1AC0197FD21C086958695BA
:100660008695F401E80FF11D808190E09A012770D2
:10067000307002C0959587952A95E2F780FD04C0F9
:10068000CA01B6016DD10BC00115110519F0D801D1
:100690004D938D01AA94BB24AA20D9F602C0BB2099
:1006A00031F40115110529F0F801108202C0EE2481
:1006B000FF24C701A096EEE00C94A11BA0E0B0E0DF
:1006C000E4E6F3E00C94851B5C016B013A01FC014C
:1006D000178216828824DEC0812F90E00E94761B4C
:1006E000892B19F0C501ACDED5C0153249F4F601ED
:1006F000F3FC6591F3FE61916F01653259F415E2E7
:10070000C501ECD097FDD2C0181709F4C3C0B501DC
:1007100027D1D1C06A3219F0162F00E006C0F3FCD1
:100720001591F3FE11916F0101E099240EC0026052
:10073000692D70E080E090E040E254DE962EF601F4
:10074000F3FC1591F3FE11916F01212F20532A30F4
:1007500070F301FD03C099249A9403C0992009F411
:10076000AAC0183621F01C3699F4F6010BC0F60128
:10077000F3FC6591F3FE6191683619F06F01162F55
:1007800007C008600460F3FC1591F3FE11916F013E
:10079000112309F490C084E092E0612F70E093D0BF
:1007A000892B09F488C0802F00FF03C0EE24FF24AA
:1007B00007C0F301E080F18022E030E0620E731E9A
:1007C0001E3649F4F5014681578160E070E0C701AB
:1007D000202FFCDD5FC0133689F481FD02C099240F
:1007E0009394C5017BD097FD61C0E114F10419F029
:1007F000F70181937F019A94A1F74AC01B3551F408
:10080000C501692DA7019601B2DE6C01009709F0C0
:100810003FC039C0C50114DE97FD48C01F3649F1FD
:10082000103728F4143619F1193629F525C0133775
:1008300019F0153701F51BC0C50150D0EC0197FD2B
:1008400010C00E94761B892B21F0CE01B50188D003
:1008500008C0E114F10419F0F701C1937F019A94E3
:1008600059F7E114F104A1F0F701108211C0006200
:1008700003C0006101C00064C501692DA701202FDC
:10088000F6DD882329F4F5018381807379F413C0A0
:1008900000FF8394F501F380F601F3FC1591F3FE5C
:1008A00011916F01112309F017CF05C0882019F4A9
:1008B0002FEF3FEF02C0282D30E0C901CDB7DEB7E2
:1008C000EEE00C94A11BFC010590061621F000201F
:1008D000D9F7C00108953197CF010895CF93DF93E1
:1008E000EC014B8140FF1AC046FF0AC04F7B4B838F
:1008F0008E819F8101969F838E838A81282F2BC0B2
:1009000042FF13C0E881F9818081282F332727FD1A
:1009100030952115310529F440624B832FEF3FEFCD
:100920001BC03196F983E88311C0EA85FB85CE01AF
:1009300019959C0197FF0AC09B812F5F3F4F11F0D3
:1009400080E201C080E1892B8B83E8CF8E819F817B
:1009500001969F838E8330E0C901DF91CF91089586
:100960009C01FB01838180FF11C086FD0FC09FEFBA
:100970002F3F390759F0228380648F7D83838681DE
:10098000978101979783868330E002C02FEF3FEF76
:10099000C90108958130910549F46F5F7F4F79F463
:1009A0008AE392E060E072E00C94B612892B39F48D
:1009B0006F5F7F4F21F48AE392E00C944713089510
:1009C00080E090E06FEF7FEFE5CF81E090E06FEFA8
:1009D0007FEFE0CFDF92EF92FF920F931F93DF93B1
:1009E000CF93CDB7DEB7C054D0400FB6F894DEBF7A
:1009F0000FBECDBFD82E80914E028F5F80934E02E6
:100A00009BE199838A835B834C838EE08D8305E031
:100A10009E012F5F3F4F08C0F901E00FF11DA60FA7
:100A2000B71F8C9180830F5F0550A02FB0E00B5F44
:100A3000A417B50788F39981F90102C0808198272E
:100A400031968E2F821B8017C8F310E07E01089428
:100A5000E11CF11CF701E00FF11F908387E992E0A0
:100A60006D2DBBD50F5F1F4F87E992E0B701A8013D
:100A700005D687E992E061E060D690E0882309F42A
:100A800091E0892FC05CDF4F0FB6F894DEBF0FBE38
:100A9000CDBFCF91DF911F910F91FF90EF90DF902D
:100AA0000895FF920F931F93CF93DF93282F8B010D
:100AB000F42E87E992E0622F5ED6C0E0D0E008C055
:100AC00087E992E09DD5F801EC0FFD1F8083219608
:100AD00087E992E08CD5892B99F74F2D50E0C41708
:100AE000D50721F0A0E0B0E090E010C0A0E0B0E0B9
:100AF00090E09E012150304006C0F801EA0FFB1F34
:100B0000808198271196A217B307BCF3A00FB11FDD
:100B10008C91891711F080E005C080E0C417D507DB
:100B200009F481E0DF91CF911F910F91FF9008951B
:100B30001F93DF93CF93CDB7DEB7C055D0400FB62C
:100B4000F894DEBF0FBECDBF182F18165CF582E1FA
:100B5000898B81E08A8B1B8A1C8A1D8A1E8A812FC1
:100B6000BE016F5E7F4F46E050E034DF8130A1F47C
:100B7000812FBE016F5F7F4F48E093DF813049F4E2
:100B80008E81823179F49F81911191E081E08927F2
:100B90000AC081ED90E002C080ED90E090934202A7
:100BA0008093410280E0C05BDF4F0FB6F894DEBF58
:100BB0000FBECDBFCF91DF911F910895CF92DF92ED
:100BC000EF92FF920F931F93DF93CF93CDB7DEB7D2
:100BD000C055D0400FB6F894DEBF0FBECDBF082F72
:100BE0006A01790118160CF052C086E08983909151
:100BF0004F02809150028A839B837C836D83802F78
:100C0000BE016F5F7F4F45E050E0E4DE813071F45C
:100C1000802FBE016F5E7F4F48E043DF8130B9F522
:100C20008E898630A1F58F89882389F584E18983AF
:100C3000FA821E2DEB821C82802FBE016F5F7F4FD8
:100C400044E050E0C7DE813011F565E070E080E0FF
:100C500090E00E94860E175F802FBE016F5E7F4F6F
:100C6000412F1FDF813099F4DE01589620E030E0FB
:100C700009C08D91F601E20FF31F9081981739F4A6
:100C80002F5F3F4F2E153F05A0F381E001C080E0AC
:100C9000C05BDF4F0FB6F894DEBF0FBECDBFCF9164
:100CA000DF911F910F91FF90EF90DF90CF9008950B
:100CB000DF92EF92FF920F931F93DF93CF93CDB705
:100CC000DEB7C055D0400FB6F894DEBF0FBECDBF23
:100CD000F82EE42ED52E890118160CF05CC086E0A3
:100CE000898B90914F02809150028A8B9B8B7C8BD9
:100CF0006D8B8F2DBE016F5E7F4F45E050E06ADE49
:100D0000813081F48F2DBE016F5F7F4F48E0C9DED7
:100D1000813009F040C08E81863009F03CC08F815F
:100D20008823C9F583E1898B1A8B0B8B1C8A1D8A5A
:100D30001E8A1F8A188E198E1A8E2E2D3D2DC901DE
:100D4000DC01FE017196BF019F01200F311F03C01E
:100D50008D9182873196E217F307D1F7065F1F4F17
:100D60008F2DA80137DE8130B1F469E170E080E0B9
:100D700090E0CCD78F2DBE016F5F7F4F48E091DEB2
:100D8000813049F48E81833131F490E08F81882362
:100D900019F491E001C090E0892FC05BDF4F0FB6DE
:100DA000F894DEBF0FBECDBFCF91DF911F910F91A1
:100DB000FF90EF90DF900895EF92FF920F931F93B3
:100DC00097D77B018C018091450290914602A091BA
:100DD0004702B0914802A8019701281B390B4A0B22
:100DE0005B0B8091490290914A02A0914B02B09115
:100DF0004C0282179307A407B507B8F4E0924502A6
:100E0000F0924602009347021093480281E09091CD
:100E10004D02891B80934D0292B3882319F0892FCC
:100E2000816002C0892F8E7F84BB1F910F91FF903C
:100E3000EF9008954F925F926F927F928F929F9260
:100E4000AF92BF92CF92DF92EF92FF920F931F93D8
:100E5000DF93CF93CDB7DEB762970FB6F894DEBFBE
:100E60000FBECDBF00913E0210913F0202501040D4
:100E700031E0E32EF12CCC24DD2423E0822E912CD2
:100E80008C0E9D1E91E0692E92E0792E2E01089421
:100E9000411C511C87E0A82EB12CAC0EBD1E2EC0EB
:100EA000A7017901C5016AE372E00E94E512C5015C
:100EB000B40144E050E020E030E00E946010C50141
:100EC0000E94471300D000D0EDB7FEB73196ADB702
:100ED000BEB712969C928E9211977382628255824F
:100EE00044825BDA89819A81C80ED91E8DB79EB77C
:100EF00006960FB6F8949EBF0FBE8DBF97012E5F6A
:100F00003F4FE016F10664F28E01035F1F4FC801E8
:100F10006AE372E0A7010E94E512C801B40144E04F
:100F200050E020E030E00E946010C8010E944713AA
:100F300000D000D0EDB7FEB73196ADB7BEB7129670
:100F40009C928E92119781E092E0938382835582E6
:100F5000448223DA8FEF90E0C826D9260894C11C7A
:100F6000D11C20E0BFEFCB22DD248DB79EB70696C3
:100F70000FB6F8949EBF0FBE8DBF89819A81C816A7
:100F8000D90609F421E0822F62960FB6F894DEBFED
:100F90000FBECDBFCF91DF911F910F91FF90EF90CA
:100FA000DF90CF90BF90AF909F908F907F906F9089
:100FB0005F904F900895EF92FF920F931F93DF93EE
:100FC000CF93CDB7DEB72C970FB6F894DEBF0FBE28
:100FD000CDBFFC01DB0149831A829B012E5F3F4F8D
:100FE0008481958128173907A0F58E01095F1F4F6D
:100FF000C801BF01AD010E94E51243E0E42EF12CCF
:10100000EC0EFD1EC801B70144E050E020E030E0E6
:101010000E946010C8010E94471300D000D0EDB7B5
:10102000FEB73196ADB7BEB71296FC92EE9211970D
:1010300081E092E093838283CE010196958384833D
:10104000ACD98DB79EB706960FB6F8949EBF0FBE6B
:101050008DBF89812C960FB6F894DEBF0FBECDBF31
:10106000CF91DF911F910F91FF90EF9008950F9313
:101070001F930AE315E0C80164E072E00E942F1498
:101080006091410270914202C8014AE050E00E9422
:101090001F14C80160E072E00E943114C8010E9470
:1010A00070171F910F9108950F931F930AE315E096
:1010B000C8016CE072E00E943114C8010E947017F0
:1010C0001F910F910895682F8A3021F08D3021F4FF
:1010D00081E0089580E008958AE392E00E9473120F
:1010E00080E00895FF920F931F93DF93CF9300D07A
:1010F00000D0CDB7DEB7BC018E010F5F1F4FC80116
:101100000E943F13C80167E070E040E054DFF82E12
:10111000C8010E9447138F2D26960FB6F894DEBFA4
:101120000FBECDBFCF91DF911F910F91FF9008951A
:10113000AF92BF92CF92DF92EF92FF920F931F93E5
:10114000DF93CF93CDB7DEB72C970FB6F894DEBF01
:101150000FBECDBF5C018E010F5F1F4FC801B501EF
:101160000E943F13C80163E070E040E024DFD82E06
:10117000CC24C8010E94471357E0E52EF12CEC0E59
:10118000FD1EC701B5010E943F13C70165E070E075
:1011900040E011DF082FC7010E94471310E00C291F
:1011A0001D29C8012C960FB6F894DEBF0FBECDBF27
:1011B000CF91DF911F910F91FF90EF90DF90CF9033
:1011C000BF90AF900895AF92BF92CF92DF92EF920F
:1011D000FF920F931F93DF93CF93CDB7DEB72C977A
:1011E0000FB6F894DEBF0FBECDBF5C018E010F5F5E
:1011F0001F4FC801B5010E943F13C80169E070E0AC
:1012000040E0D9DED82ECC24C8010E94471367E005
:10121000E62EF12CEC0EFD1EC701B5010E943F1316
:10122000C7016BE070E040E0C6DE082FC7010E94F6
:10123000471310E00C291D29C8012C960FB6F8940D
:10124000DEBF0FBECDBFCF91DF911F910F91FF90F9
:10125000EF90DF90CF90BF90AF900895FF920F93E3
:101260001F93DF93CF9300D000D0CDB7DEB7BC0182
:101270008E010F5F1F4FC8010E943F13C80161E03C
:1012800070E040E098DEF82EC8010E9447138F2DD1
:1012900026960FB6F894DEBF0FBECDBFCF91DF917B
:1012A0001F910F91FF9008955F926F927F928F929E
:1012B0009F92AF92BF92CF92DF92EF92FF920F93E5
:1012C0001F93DF93CF93CDB7DEB7C654D0400FB690
:1012D000F894DEBF0FBECDBF8AE392E096D68E01B2
:1012E0000F5F1F4FC8016FE072E00E94B6128AE3E1
:1012F00092E0B80183D7F82EC8010E944713FF205F
:1013000009F499C097DD882309F4DFC08091440275
:10131000882311F420E007C08091430209DC282FC4
:10132000882309F4D3C01092440280914302882399
:1013300009F4CCC08E01095F1F4FC8016AE372E057
:101340000E943F13C8018ADFF82EC8010E9447138C
:101350008E01035F1F4FC8016AE372E00E943F13D2
:10136000C801E6DE3C01C8010E9447138E010D5EF4
:101370001F4FC8016AE372E00E943F13C801B2DE4A
:10138000582EC8010E944713A7E38A2E912C8C0E79
:101390009D1E09E010E0AF2CBB247501EE0CFF1C74
:1013A000E00EF11EE9E1CE2ED12CCC0EDD1E11C0D7
:1013B000C6016AE372E00E943F13C601B80140E033
:1013C000FADDF40181934F01C6010E9447130E5FBD
:1013D0001F4F0E151F0561F7552029F0F2E05F162B
:1013E00009F071C014C08E01095C1F4F8091430247
:1013F000B301A80195015CDC882309F466C08091E3
:101400004302B301A8019501D9DB282F5FC08E01EB
:10141000015E1F4FC8016AE372E00E943F13C801DA
:10142000D2DE92959F7090934F0210925002C801A5
:101430000E94471348C08E010B5D1F4FC80161E138
:1014400072E00E94B6128AE392E0B801D7D6F82E75
:10145000C8010E944713FF2079F18E01055D1F4FDF
:10146000C80161E172E00E94B61271E3E72EF12C2F
:10147000EC0EFD1EC70160E072E00E94B6128AE326
:1014800092E0B801A701E5D6C7010E944713C80141
:101490000E9447138AE392E0A7D560934302161691
:1014A00044F481E0809344021092500210924F0263
:1014B0000AC01092440209C020E080913E0290913F
:1014C0003F02892B19F421E001C020E0822FCA5B82
:1014D000DF4F0FB6F894DEBF0FBECDBFCF91DF91C7
:1014E0001F910F91FF90EF90DF90CF90BF90AF9042
:1014F0009F908F907F906F905F9008955DDC07C004
:101500008AE395E00E944717DEDD809340028AE37C
:1015100095E00E9415171816190694F38091400261
:10152000882321F182B3826084BBBEDE882331F040
:10153000BBDD8AEF90E0A0E0B0E005C098DD84E676
:1015400090E0A0E0B0E08093490290934A02A0931B
:101550004B02B0934C02109240028AE392E060E0AA
:1015600072E00E94CE1282B38D7F84BB089583B354
:10157000836083BB81B18E6081B98EE082B964E6FD
:1015800070E080E090E0C2D312B88AE395E040E0DA
:1015900052EC61E070E00E948F1687E992E0EDD096
:1015A00010924002109242021092410210924302A5
:1015B000109244028AEF90E0A0E0B0E080934902EC
:1015C00090934A02A0934B02B0934C0210924D02AA
:1015D0008AE392E060E072E0E1C781E080939602E6
:1015E00060937302109294021092950208952091D4
:1015F000720230E080917102281B3109C9010895FF
:101600004091710280917202481718F02FEF3FEF5E
:101610000AC0E42FF0E0EF5AFD4F8081282F30E020
:101620004F5F40937102C9010895E091710280916A
:101630007202E81718F0EFEFFFEF06C0F0E0EF5A84
:10164000FD4F8081E82FF0E0CF01089508951092BA
:101650009A021092990288EE93E0A0E0B0E08093A5
:101660009B0290939C02A0939D02B0939E028EE1F8
:1016700092E090939802809397020895CF92DF9220
:10168000EF92FF920F931F93CF93DF937C016B0137
:101690008A01809196028823A1F0C0E0D0E00DC0BD
:1016A000D701ED91FC91D601AC0FBD1F0190F081E7
:1016B000E02DC7016C9119952196C017D10780F3D1
:1016C00003C0CB01642F00D1C801DF91CF911F91DE
:1016D0000F91FF90EF90DF90CF900895DF93CF931D
:1016E0000F92CDB7DEB7FC01698380919602882303
:1016F000C9F080919502803238F081E090E09383C8
:10170000828320E030E014C080919402E82FF0E062
:10171000EC58FD4F998190838F5F80939402809362
:10172000950204C0CE01019661E0CED021E030E008
:10173000C9010F90CF91DF9108950F93062F8091EB
:10174000730264E772E04091950221E068D0109244
:10175000940210929502109296020F9108954132D0
:1017600008F040E2862F61E572E010D0109271021D
:1017700080937202089521E0F2CF109271021092CC
:10178000720210929402109295024EC2382F41328A
:1017900010F040E042C08091A3028823E1F791E07D
:1017A0009093A3022093A5028FEF809310031092D1
:1017B000CB0241504093CC024F5F9093A4028091A2
:1017C000A402330F832B8093A4028091A602813060
:1017D00041F41092A6028091A4028093BB0085EC94
:1017E00001C085EE8093BC008091A3028130E1F3BB
:1017F0008091CB02841710F44091CB0220E030E0BE
:101800000AC0FB01E20FF31FD901A555BD4F8C9112
:1018100080832F5F3F4F2417A0F3842F08950F93E9
:101820001F93582F122F413210F081E04AC080914F
:10183000A3028823E1F782E08093A3020093A5022C
:101840008FEF809310031092CB024093CC02ABEA4F
:10185000B2E0FB0102C081918D938E2F861B84170D
:10186000D0F31092A4028091A402550F852B80938F
:10187000A4028091A602813041F41092A6028091C8
:10188000A4028093BB0085EC01C085EE8093BC0070
:10189000112321F08091A3028230E1F380911003A3
:1018A0008F3F11F480E00DC080911003803211F45D
:1018B00082E007C080911003803311F084E001C002
:1018C00083E01F910F910895482F613210F081E05D
:1018D00008958091A302843011F082E0089560930E
:1018E000EE02ADECB2E0842F9C01F90102C08191BF
:1018F0008D938E2F841B8617D0F380E008951F925E
:101900000F920FB60F920BB60F9211242F933F93A5
:101910004F935F936F937F938F939F93AF93BF93F7
:10192000EF93FF938091B90090E0887F90708036AC
:10193000910509F4F2C081369105CCF58832910504
:1019400009F47BC089329105B4F48031910509F422
:101950006FC0813191053CF4009709F447C10897A5
:1019600009F04FC165C08831910509F466C08097C0
:1019700009F047C182C08034910509F4A4C08134C4
:10198000910544F48033910509F482C0C89709F0A9
:1019900038C189C08035910509F489C08835910521
:1019A00009F496C08834910509F02BC1AEC088397E
:1019B000910509F413C189399105ECF48837910533
:1019C00009F4ABC0893791054CF48836910509F4C8
:1019D000A4C08037910509F014C19FC088389105D3
:1019E00009F4FCC08039910509F49DC08038910547
:1019F00009F007C198C0803B910509F4C6C0813B3E
:101A000091054CF4803A910509F49FC0883A9105FC
:101A100009F0F7C0BAC0803C910509F4E3C0883CE6
:101A2000910509F4DFC0883B910509F0EAC0C2C006
:101A30008091A4028093BB00CFC09091CB02809193
:101A4000CC02981768F49091CB02E92FF0E0E555AD
:101A5000FD4F80818093BB009F5F9093CB02BCC001
:101A60008091A502882309F44BC085ED8093BC00CA
:101A70008091BC0084FDFCCFC2C080E28093100343
:101A800085ED8093BC008091BC0084FDFCCFB7C085
:101A900080E38093100385ED8093BC008091BC00AF
:101AA00084FDFCCFACC088E3809310039BC0809181
:101AB000CB029091BB00E82FF0E0E555FD4F9083FD
:101AC0008F5F8093CB029091CB028091CC0282C039
:101AD0008091CB029091BB00E82FF0E0E555FD4FDF
:101AE00090838F5F8093CB028091A502882341F081
:101AF00085ED8093BC008091BC0084FDFCCF7FC04D
:101B000081E08093A60284EA6EC085ED8093BC00DC
:101B10008091BC0084FDFCCF72C083E08093A3025F
:101B200010920F0359C080910F03803208F056C005
:101B300080910F039091BB00E82FF0E0E151FD4F41
:101B400090838F5F80930F0347C080910F03803293
:101B500030F4E0910F03F0E0E151FD4F108285ED8C
:101B60008093BC008091BC0084FDFCCF1092A30246
:101B700060910F03E091A902F091AA028FEE92E02A
:101B800070E0199510920F032DC084E08093A3029A
:101B90001092ED021092EE02E091A702F091A802DD
:101BA00019958091EE02882329F481E08093EE025A
:101BB0001092CD029091ED02E92FF0E0E353FD4F3A
:101BC00080818093BB009F5F9093ED029091ED0226
:101BD0008091EE02981710F485EC01C085E880939F
:101BE000BC000FC085EC8093BC0009C010921003AC
:101BF00085ED8093BC008091BC0084FDFCCF1092E9
:101C0000A302FF91EF91BF91AF919F918F917F912F
:101C10006F915F914F913F912F910F900BBE0F905D
:101C20000FBE0F901F9018951092A30281E0809331
:101C3000A5021092A60284E161E097D185E161E0FE
:101C400094D1E9EBF0E080818E7F808380818D7F6D
:101C5000808388E48093B80085E48093BC00089575
:101C60001F920F920FB60F9211242F933F938F93D1
:101C70009F93AF93BF938091150390911603A0910A
:101C80001703B0911803309119030196A11DB11DDE
:101C9000232F2D5F2D3720F02D570196A11DB11D4B
:101CA000209319038093150390931603A0931703B1
:101CB000B09318038091110390911203A091130324
:101CC000B09114030196A11DB11D8093110390934F
:101CD0001203A0931303B0931403BF91AF919F918C
:101CE0008F913F912F910F900FBE0F901F901895DD
:101CF0008FB7F89420911503309116034091170384
:101D0000509118038FBFB901CA0108959B01AC011E
:101D10007FB7F8948091110390911203A09113035F
:101D2000B091140366B5A89B05C06F3F19F00196EA
:101D3000A11DB11D7FBFBA2FA92F982F8827860F0D
:101D4000911DA11DB11D62E0880F991FAA1FBB1F25
:101D50006A95D1F7BC012DC0FFB7F89480911103AB
:101D600090911203A0911303B0911403E6B5A89BC0
:101D700005C0EF3F19F00196A11DB11DFFBFBA2F9D
:101D8000A92F982F88278E0F911DA11DB11DE2E06C
:101D9000880F991FAA1FBB1FEA95D1F7861B970BC7
:101DA000885E9340C8F22150304040405040685116
:101DB0007C4F211531054105510571F60895789440
:101DC00084B5826084BD84B5816084BD85B5826040
:101DD00085BD85B5816085BDEEE6F0E080818160DE
:101DE0008083E1E8F0E010828081826080838081DE
:101DF00081608083E0E8F0E0808181608083E1EBB6
:101E0000F0E0808184608083E0EBF0E0808181609D
:101E10008083E1E9F0E0808182608083808181605D
:101E20008083E0E9F0E0808181608083E1EAF0E096
:101E3000808182608083808181608083E0EAF0E03D
:101E4000808181608083E1E2F1E080818260808333
:101E5000808181608083E0E2F1E080818160808325
:101E6000EAE7F0E080818460808380818260808303
:101E70008081816080838081806880831092C1002E
:101E80000895893009F449C08A30A0F4843051F1B2
:101E9000853040F4823079F1833000F5813009F0EB
:101EA00063C026C0873079F1883098F5863009F014
:101EB0005BC025C08D3009F442C08E3028F48B30D1
:101EC000B1F18C30C0F52DC0803109F442C08131B0
:101ED00009F445C08F3009F047C037C080918000B9
:101EE0008F7703C0809180008F7D8093800008955C
:101EF00084B58F7702C084B58F7D84BD08958091AD
:101F0000B0008F7703C08091B0008F7D8093B000C8
:101F10000895809190008F7707C0809190008F7D09
:101F200003C080919000877F8093900008958091F6
:101F3000A0008F7707C08091A0008F7D03C08091A3
:101F4000A000877F8093A0000895809120018F7763
:101F500003C0809120018F7D80932001089580919E
:101F60002001877F809320010895FF920F931F9394
:101F7000F62E482F50E0CA0182549E4FFC01249156
:101F8000CA0188589E4FFC0114914E5C5E4FFA01C5
:101F900004910023C1F0222311F0822F72DFE02F81
:101FA000F0E0EE0FFF1FE250FF4FA591B4919FB7F5
:101FB000F894FF2021F48C911095812302C08C911C
:101FC000812B8C939FBF1F910F91FF9008950895CF
:101FD000CF93DF93F4DEFBDFCADAC2E4D5E18EDA19
:101FE0002097E9F34FD5FBCFFC01808191810097C9
:101FF00029F420E030E040E050E004C00E943A01C3
:102000009B01AC01B901CA010895CF92DF92EF9212
:10201000FF920F931F93CF93DF936C01DC01ED9040
:10202000FC901197E114F10409F441C01496CD918C
:10203000DC9115972097D9F1870102C00F5F1F4FE0
:10204000F8018081992787FD90950E94761B892B46
:10205000A9F72197CE0DDF1D01C02197888199270F
:1020600087FD90950E94761B892B19F0C017D10728
:10207000A0F7FE013196E01BF10BD6011596FC93FB
:10208000EE9314972D913C912017310728F4C90144
:10209000B801AF010E946001D601ED91FC9111974A
:1020A00014968D919C911597E80FF91F1082DF917E
:1020B000CF911F910F91FF90EF90DF90CF900895F7
:1020C0000F931F93CF93DF93FC018B0141155105B3
:1020D000F9F061157105E1F08481958128173907C0
:1020E00018F0FB01108214C041505040EC01C21B9B
:1020F000D30B4C175D0708F4EA0160817181620F10
:10210000731FC801AE010E948F01C00FD11F18823A
:10211000DF91CF911F910F910895AF92BF92CF920F
:10212000DF92EF92FF920F931F93CF93DF93FC0107
:102130005B017A01DB0114962D913C9115972115D5
:10214000310559F184819581009739F18217930700
:1021500020F14817590720F07C010894E108F108A4
:1021600000811181C801CFEFDFEF6801CE0CDF1CC9
:1021700010C0F501608171810E949E019C01009751
:1021800071F0801B910BE816F90608F0EC01C9010B
:102190000196C816D90668F702C0CFEFDFEFCE016F
:1021A000DF91CF911F910F91FF90EF90DF90CF9033
:1021B000BF90AF900895FC01DB0114962D913C91E6
:1021C000159784819581821B930B84179507A0F046
:1021D00080819181009781F06D917C9161157105ED
:1021E00059F0840F951FA9010E9481019C0180E094
:1021F000232B19F481E0089580E00895FC01DB01B0
:102200002481358114968D919C9115972817390753
:1022100010F480E00895CF0140E050E0CCCF0F9360
:102220001F93CF93DF93EC018B016F5F7F4F88810A
:1022300099810E942B1A009711F480E005C09983C0
:1022400088831B830A8381E0DF91CF911F910F91D7
:1022500008952F923F924F925F926F927F928F924A
:102260009F92AF92BF92CF92DF92EF92FF920F9325
:102270001F93CF93DF935C012B014A01DC0114967D
:102280000D911C9115970115110509F4D2C0FB01A0
:10229000C480D580C114D10409F4CBC0DA011496EE
:1022A0006D907C9015976C187D08FC01E080F180A2
:1022B0006114710491F01BC0D4016C9111967C9152
:1022C000119714964D915C9115978C2F0E94600187
:1022D000F401E480F580EC0EFD1ED2016D917C913D
:1022E000C7010E949E01EC01009731F7A2C077FE62
:1022F00002C067012EC0FB0120803180E8013CC094
:102300008E010E191F09C601B701A8010E946001C4
:102310000C0D1D1DD4016C9111967C911197149692
:102320004D915C911597C8010E946001F401C48031
:10233000D580C00ED11ED2011496ED90FC90159759
:10234000EC0EFD1EF50184819581860D971D958308
:102350008483D2016D917C91C7010E949E01EC01A2
:10236000009771F6C601B7010E947A0162C07B0135
:10237000EC0CFD1CC60DD71DC701B1010E949E01CA
:10238000BC010097A1F7C017D10709F452C0F501AD
:10239000828193818C179D0708F042C0C501BE0160
:1023A0003EDF8823E9F545C0C501B201A901B5DECC
:1023B000EC0197FD3EC0D5016D917C911197F20122
:1023C000848195818C0F9D1F680F791F14964D9104
:1023D0005C911597481B590BCB01860D971D0E94E8
:1023E0006901D50114968D919C911597860D971DC5
:1023F00015969C938E931497ED91FC911197E80F8D
:10240000F91F10822D913C912C0F3D1FF40160812A
:10241000718144815581C9010E9460019E0105C0FE
:10242000D50114962D913C9115972150304037FFDE
:10243000BBCFDF91CF911F910F91FF90EF90DF9075
:10244000CF90BF90AF909F908F907F906F905F9054
:102450004F903F902F900895CF93DF93EC018881A8
:102460009981892B29F08A819B818617970758F4D7
:10247000CE01D5DE882341F08C819D81892B19F412
:10248000E881F981108281E0DF91CF910895EF9288
:10249000FF920F931F93CF93DF93EC017B016C812D
:1024A0007D81E114F104B9F04115510591F08A01E3
:1024B000060F171FB801D0DF882369F08881998142
:1024C0002C813D81820F931FB7010E947A011D83E9
:1024D0000C8381E001C080E0DF91CF911F910F91CB
:1024E000FF90EF900895DF93CF930F920F92CDB7A7
:1024F000DEB769831A82BE016F5F7F4F41E050E013
:10250000C6DF0F900F90CF91DF910895CF93DF93A7
:10251000EC0188819981009709F005D7198218820A
:102520001D821C821B821A82DF91CF910895EF9247
:10253000FF920F931F93CF93DF93EC017B018A01EE
:10254000BA018ADF882319F4CE01E0DF07C01D83BA
:102550000C8388819981B7010E947A01CE01DF91B5
:10256000CF911F910F91FF90EF900895CF93DF933C
:10257000EC01198218821B821A821D821C8261154D
:10258000710549F0DB010D900020E9F71197A61BBA
:10259000B70BAD01CCDFDF91CF9108950F931F935F
:1025A000182F092F6115710551F0DB010D900020E6
:1025B000E9F71197A61BB70BAD01B9DF01C0A6DF84
:1025C000812F902F1F910F910895BF92CF92DF928C
:1025D000EF92FF920F931F93CF93DF93082FB92EA3
:1025E0006B017A01E9012417350710F4EA0179013A
:1025F000802F9B2D63E172E0B9DFD60114968D9197
:102600009C9115978E159F05C8F08C179D0708F4AF
:10261000EC01D601ED91FC911197EC0FFD1F10819B
:1026200010826D917C916E0D7F1D802F9B2DB6DFEA
:10263000D601ED91FC91EC0FFD1F1083802F9B2D97
:10264000DF91CF911F910F91FF90EF90DF90CF908E
:10265000BF900895CF93DF93EC01FB018617970796
:1026600051F0608171816115710521F044815581BE
:102670005EDF01C04BDFCE01DF91CF910895FC01F9
:10268000118210821382128215821482E3CFFC0120
:102690008081918148C6CF92DF92EF92FF920F9393
:1026A0001F93CF93DF937C016B018A01C0E0D0E0E0
:1026B0000FC0D6016D916D01D701ED91FC91019094
:1026C000F081E02DC7011995C80FD91F01501040A6
:1026D0000115110571F7CE01DF91CF911F910F9177
:1026E000FF90EF90DF90CF900895EF92FF920F93BD
:1026F0001F938C01DC01ED91FC910190F081E02DA4
:102700006DE019957C01D801ED91FC910190F0816B
:10271000E02DC8016AE019959C012E0D3F1DC901ED
:102720001F910F91FF90EF900895CF93DF93EC01ED
:102730006115710519F420E030E00FC0DB010D9048
:102740000020E9F71197A61BB70BE881F9810280F9
:10275000F381E02DAD0119959C01C901DF91CF9165
:1027600008954F925F927F928F929F92AF92BF9205
:10277000CF92DF92EF92FF920F931F93DF93CF934D
:10278000CDB7DEB7A1970FB6F894DEBF0FBECDBFB1
:102790002C01742ECB01223008F42AE019A231E278
:1027A000C32ED12CCC0EDD1E822E9924AA24BB244C
:1027B000672D752FA50194015DD779018A01C801A4
:1027C000B701A501940124D7472D461B0894C108E1
:1027D000D1084A3014F4405D01C0495CF6014083E1
:1027E000E114F1040105110521F07E2C5F2DC801D3
:1027F000DFCFC201B60199DFA1960FB6F894DEBF14
:102800000FBECDBFCF91DF911F910F91FF90EF9041
:10281000DF90CF90BF90AF909F908F907F905F9010
:102820004F900895DC012115310541F4ED91FC91A3
:102830000190F081E02D642F1995089592CFEF92C9
:10284000FF920F931F939A017B0100E010E0B80103
:10285000A701E8DF1F910F91FF90EF90089565CFDA
:102860000895EF92FF920F931F937C015EDF8C011E
:10287000C7013BDF080F191FC8011F910F91FF907F
:10288000EF90089508951F920F920FB60F920BB616
:102890000F9211242F933F934F938F939F93EF9316
:1028A000FF938091C00082FD1DC04091C600209121
:1028B0005A0330915B032F5F3F4F2F73307080912D
:1028C0005C0390915D032817390771F0E0915A037A
:1028D000F0915B03E65EFC4F408330935B032093F3
:1028E0005A0302C08091C600FF91EF919F918F9192
:1028F0004F913F912F910F900BBE0F900FBE0F90F5
:102900001F90189508951F920F920FB60F920BB655
:102910000F9211242F933F934F938F939F93EF9395
:10292000FF938091C80082FD1DC04091CE00209190
:10293000E2033091E3032F5F3F4F2F73307080919C
:10294000E4039091E5032817390771F0E091E20361
:10295000F091E303EE55FC4F40833093E303209363
:10296000E20302C08091CE00FF91EF919F918F9181
:102970004F913F912F910F900BBE0F900FBE0F9074
:102980001F90189508951F920F920FB60F920BB6D5
:102990000F9211242F933F934F938F939F93EF9315
:1029A000FF938091D00082FD1DC04091D600209100
:1029B0006A0430916B042F5F3F4F2F73307080910A
:1029C0006C0490916D042817390771F0E0916A0446
:1029D000F0916B04E65DFB4F408330936B042093D2
:1029E0006A0402C08091D600FF91EF919F918F9170
:1029F0004F913F912F910F900BBE0F900FBE0F90F4
:102A00001F90189508951F920F920FB60F920BB654
:102A10000F9211242F933F934F938F939F93EF9394
:102A2000FF938091300182FD1DC0409136012091BD
:102A3000F2043091F3042F5F3F4F2F733070809179
:102A4000F4049091F5042817390771F0E091F2042D
:102A5000F091F304EE54FB4F40833093F304209342
:102A6000F20402C080913601FF91EF919F918F9106
:102A70004F913F912F910F900BBE0F900FBE0F9073
:102A80001F901895E0914605F0914705E05CFF4FD7
:102A90008191919120813181805C9F4F821B930BAA
:102AA00060E470E0D4D5892B09F0ECDEE091680594
:102AB000F0916905E05CFF4F819191912081318116
:102AC000805C9F4F821B930B60E470E0C0D5892B24
:102AD00009F018DFE0918A05F0918B05E05CFF4F6B
:102AE0008191919120813181805C9F4F821B930B5A
:102AF00060E470E0ACD5892B09F044DFE091AC05CF
:102B0000F091AD05E05CFF4F819191912081318181
:102B1000805C9F4F821B930B60E470E098D5892BFB
:102B200009F070CF08951F920F920FB60F920BB657
:102B30000F9211242F933F938F939F93EF93FF93C3
:102B400020919E0330919F038091A0039091A10357
:102B50002817390731F48091C1008F7D8093C1001F
:102B600014C0E091A003F091A103E25AFC4F208130
:102B70008091A0039091A10301968F739070909320
:102B8000A1038093A0032093C600FF91EF919F9132
:102B90008F913F912F910F900BBE0F900FBE0F9012
:102BA0001F9018951F920F920FB60F920BB60F92AF
:102BB00011242F933F938F939F93EF93FF93209133
:102BC0002604309127048091280490912904281725
:102BD000390731F48091C9008F7D8093C90014C0FA
:102BE000E0912804F0912904EA51FC4F2081809162
:102BF00028049091290401968F7390709093290472
:102C0000809328042093CE00FF91EF919F918F91A4
:102C10003F912F910F900BBE0F900FBE0F901F9002
:102C200018951F920F920FB60F920BB60F921124A8
:102C30002F933F938F939F93EF93FF932091AE0435
:102C40003091AF048091B0049091B10428173907F6
:102C500031F48091D1008F7D8093D10014C0E09138
:102C6000B004F091B104E259FB4F20818091B0048F
:102C70009091B10401968F7390709093B1048093FA
:102C8000B0042093D600FF91EF919F918F913F91D7
:102C90002F910F900BBE0F900FBE0F901F901895A5
:102CA0001F920F920FB60F920BB60F9211242F9313
:102CB0003F938F939F93EF93FF932091360530912D
:102CC000370580913805909139052817390731F477
:102CD000809131018F7D8093310114C0E0913805DE
:102CE000F0913905EA50FB4F208180913805909191
:102CF000390501968F73907090933905809338054C
:102D000020933601FF91EF919F918F913F912F91E9
:102D10000F900BBE0F900FBE0F901F901895AF92A3
:102D2000BF92DF92EF92FF920F931F93CF93DF93A7
:102D3000EC017A018B01DD24403081EE580780E000
:102D4000680780E0780711F0DD24D39491E0A92E84
:102D5000B12CEC89FD89DD2069F0C50108A002C015
:102D6000880F991F0A94E2F7808360E079E08DE391
:102D700090E005C0108260E874E88EE190E0A80160
:102D8000970178D4215030404040504056954795A7
:102D90003795279580E12030380720F0DD2011F0AD
:102DA000DD24D7CFE889F9893083EA89FB8920833C
:102DB00019A2EE89FF89408121E030E0C9010C8C25
:102DC00002C0880F991F0A94E2F7482B4083EE89CE
:102DD000FF894081C9010D8C02C0880F991F0A9498
:102DE000E2F7482B4083EE89FF894081C9010E8CB0
:102DF00002C0880F991F0A94E2F7482B4083EE899E
:102E0000FF8980810F8C02C0220F331F0A94E2F7E2
:102E1000209528232083DF91CF911F910F91FF9060
:102E2000EF90DF90BF90AF900895DC011C96ED917C
:102E3000FC911D97E05CFF4F819191912081318140
:102E4000805C9F4F821B930B60E470E000C4DC0148
:102E50001C96ED91FC911D97E05CFF4F2081318124
:102E6000E054F040DF01AE5BBF4F8D919C91119714
:102E70002817390719F42FEF3FEF07C08D919C9168
:102E8000E80FF91F8081282F30E0C9010895DC0187
:102E90001C96ED91FC911D97E05CFF4F20813181E4
:102EA000E054F040DF01AE5BBF4F8D919C911197D4
:102EB0002817390719F42FEF3FEF10C08D919C911F
:102EC0001197E80FF91F20818D919C911197019620
:102ED0008F73907011969C938E9330E0C901089582
:102EE000DC0191968C919197882339F05496ED915D
:102EF000FC915597808186FFF9CF91961C92089599
:102F0000CF93DF93EC01EE85FF85E05CFF4F2081DE
:102F10003181E054F0402F5F3F4F2F733070DF015D
:102F2000AE5BBF4F8D919C91119728173907D1F354
:102F3000E05CFF4F80819181E054F040E80FF91F81
:102F40006083EE85FF85E05CFF4F31832083EE894F
:102F5000FF89208181E090E00F8C02C0880F991FCB
:102F60000A94E2F7282B208381E089A3EC89FD896C
:102F700080818064808381E090E0DF91CF9108952B
:102F80001F9310923D0510923C0528EE33E040E07F
:102F900050E020933E0530933F0540934005509309
:102FA00041056EE272E070933B0560933A058AE159
:102FB00093E090934705809346058EE593E09093C8
:102FC00049058093480585EC90E090934B058093EC
:102FD0004A0584EC90E090934D0580934C0580EC7D
:102FE00090E090934F0580934E0581EC90E0909394
:102FF00051058093500582EC90E0909353058093A7
:10300000520586EC90E0909355058093540514E0AA
:1030100010935605B3E0B0935705A7E0A093580569
:10302000F5E0F0935905E1E0E0935A0510925F0551
:1030300010925E0520936005309361054093620510
:103040005093630570935D0560935C0582EA93E09D
:10305000909369058093680586EE93E090936B05E5
:1030600080936A058DEC90E090936D0580936C05DC
:103070008CEC90E090936F0580936E0588EC90E067
:10308000909371058093700589EC90E0909373059F
:10309000809372058AEC90E0909375058093740597
:1030A0008EEC90E0909377058093760510937805E9
:1030B000B0937905A0937A05F0937B05E0937C05A6
:1030C000109281051092800520938205309383052C
:1030D000409384055093850570937F0560937E052A
:1030E0008AE294E090938B0580938A058EE694E0C3
:1030F00090938D0580938C0585ED90E090938F05DE
:1031000080938E0584ED90E09093910580939005D7
:1031100080ED90E0909393058093920581ED90E08F
:10312000909395058093940582ED90E09093970598
:103130008093960586ED90E090939905809398058D
:1031400010939A05B0939B05A0939C05F0939D0561
:10315000E0939E051092A3051092A2052093A4056A
:103160003093A5054093A6055093A7057093A1053C
:103170006093A00582EB94E09093AD058093AC053D
:1031800086EF94E09093AF058093AE0585E391E0E0
:103190009093B1058093B00584E391E09093B305DB
:1031A0008093B20580E391E09093B5058093B405D8
:1031B00081E391E09093B7058093B60582E391E0B7
:1031C0009093B9058093B80586E391E09093BB0591
:1031D0008093BA051093BC05B093BD05A093BE05BE
:1031E000F093BF05E093C0051F9108950F931F93BF
:1031F000CF93DF93BC018230910510F462E070E060
:10320000E091C405F091C505A0E0B0E040E050E0D9
:1032100024C08081918186179707D0F08617970781
:1032200071F482819381109729F013969C938E9369
:1032300012972CC09093C5058093C40527C04115F3
:10324000510519F08417950718F4EF018D01AC01B1
:10325000DF01828193819C01F9013097D1F64115FC
:103260005105F9F0CA01861B970B8430910580F453
:103270008A819B810115110521F0F80193838283D6
:1032800004C09093C5058093C405FE01329645C0E5
:10329000FE01E80FF91F6193719302979983888368
:1032A0003CC08091C2059091C305892B41F4809167
:1032B0001602909117029093C3058093C205409126
:1032C0001802509119024115510541F44DB75EB7EE
:1032D0008091140290911502481B590B2091C20550
:1032E0003091C30524173507B0F4CA01821B930B34
:1032F0008617970780F0AB014E5F5F4F84179507E5
:1033000050F0420F531F5093C3054093C205F9017B
:103310006193719302C0E0E0F0E0CF01DF91CF91C3
:103320001F910F910895CF93DF939C01009709F4AB
:103330008FC0EC0122971B821A826091C4057091A4
:10334000C5056115710581F488819981820F931FEC
:103350002091C2053091C3052817390739F5D0935C
:10336000C305C093C20574C0DB0140E050E0AC1758
:10337000BD0708F1BB83AA83FE0121913191E20FC1
:10338000F31FAE17BF0779F48D919C911197280F09
:10339000391F2E5F3F4F3983288312968D919C9160
:1033A00013979B838A834115510571F4D093C5050A
:1033B000C093C4054DC012968D919C911397AD0199
:1033C000009711F0DC01D3CFDA011396DC93CE9392
:1033D0001297FA0121913191E20FF31FCE17DF0707
:1033E00069F488819981280F391F2E5F3F4FFA01B8
:1033F000318320838A819B8193838283E0E0F0E0A4
:10340000DB0112968D919C911397009719F0BC01E6
:10341000FD01F6CFAB014E5F5F4FDB018D919C91BB
:10342000840F951F2091C2053091C30528173907D5
:1034300079F4309729F41092C5051092C40502C0A2
:1034400013821282425050405093C3054093C205EC
:10345000DF91CF9108956F927F928F929F92AF925A
:10346000BF92CF92DF92EF92FF920F931F93CF9371
:10347000DF938C01009721F4CB01B8DE8C01B8C03A
:103480008EEFE82E8FEFF82EE00EF11E4801860E2B
:10349000971E8E149F0408F4A9C0D7014D915C912A
:1034A000119746175707B0F04530510508F4A0C0F2
:1034B000CA0104978617970708F49AC042505040F3
:1034C000461B570BF401419351936D937C93CF01AD
:1034D0002ADF8EC05B01A41AB50A3801640E751E7E
:1034E000A091C405B091C505CC24DD24E0E0F0E056
:1034F00047C0A615B705A9F5CD91DC911197CE016E
:1035000002968A159B0568F1CE018A199B090296DD
:1035100012962C91129713963C91059758F0F4014E
:1035200022833383CA19DB09D183C083D7016D930A
:103530007C9309C04E5F5F4F4C0F5D1FF7015183B5
:103540004083C901FC01C114D10431F0D6011396A6
:10355000FC93EE9312974CC0F093C505E093C4051D
:1035600047C08D919C911197E817F90708F4FC0169
:103570006D0112968C91129713969C919C01D90122
:10358000109709F0B6CF8091C2059091C3058615BA
:103590009705E9F4E617F707D0F420911802309167
:1035A00019022115310541F42DB73EB7809114025F
:1035B00090911502281B390B82169306B8F490924D
:1035C000C3058092C205F7017183608311C0CB01EE
:1035D0000DDEEC01009751F0D7014D915C91B801DF
:1035E0000E946001C8019FDE8E0102C000E010E071
:1035F000C801DF91CF911F910F91FF90EF90DF9065
:10360000CF90BF90AF909F908F907F906F900895D4
:10361000629FD001739FF001829FE00DF11D649FB6
:10362000E00DF11D929FF00D839FF00D749FF00D42
:10363000659FF00D9927729FB00DE11DF91F639FE3
:10364000B00DE11DF91FBD01CF011124089597FBB5
:10365000092E07260AD077FD04D02ED006D00020F0
:103660001AF4709561957F4F0895F6F790958195BE
:103670009F4F0895A1E21A2EAA1BBB1BFD010DC08E
:10368000AA1FBB1FEE1FFF1FA217B307E407F50712
:1036900020F0A21BB30BE40BF50B661F771F881FEE
:1036A000991F1A9469F760957095809590959B0184
:1036B000AC01BD01CF010895AA1BBB1B51E107C09E
:1036C000AA1FBB1FA617B70710F0A61BB70B881FB2
:1036D000991F5A95A9F780959095BC01CD01089541
:1036E000EE0FFF1F0590F491E02D1994911106C083
:1036F000803219F089508550D0F70895992788278E
:1037000008952F923F924F925F926F927F928F9285
:103710009F92AF92BF92CF92DF92EF92FF920F9360
:103720001F93CF93DF93CDB7DEB7CA1BDB0B0FB66A
:10373000F894DEBF0FBECDBF19942A883988488817
:103740005F846E847D848C849B84AA84B984C884BD
:10375000DF80EE80FD800C811B81AA81B981CE0FB4
:10376000D11D0FB6F894DEBF0FBECDBFED01089599
:1037700012E0C6E1D2E003C0FE01B4DF2296C831F8
:08378000D107D1F7F894FFCF47
:10378800002578004552524F523A20004F4B003ADC
:10379800002500008000C6050000000000006E0B38
:1037A8003E0BF70A000B150B260B000000008017D4
:0A37B8004B1315174717271770175A
:00000001FF
