:020000023000CC
:10E0000071C000008EC000008CC000008AC00000FB
:10E0100088C0000086C0000084C0000082C00000EC
:10E0200080C000007EC000007CC000007AC00000FC
:10E0300078C0000076C0000074C0000072C000000C
:10E0400070C000006EC000006CC000006AC000001C
:10E0500068C0000066C0000064C0000062C000002C
:10E0600060C000005EC000005CC000005AC000003C
:10E0700058C0000056C0000054C0000052C000004C
:10E0800050C000004EC000004CC000004AC000005C
:10E0900048C0000046C0000044C00000E6C40000C4
:10E0A00040C000003EC000003CC000003AC000007C
:10E0B00038C0000036C0000034C0000032C000008C
:10E0C00030C000002EC000002CC000002AC000009C
:10E0D00028C0000026C0000024C0000022C00000AC
:10E0E00020C0000011241FBECFEFD1E2DEBFCDBFA4
:10E0F00001E00CBF12E0A0E0B2E0E2E5FFEE03E0D9
:10E100000BBF02C007900D92A230B107D9F722E0F1
:10E11000A2E0B2E001C01D92AE3CB207E1F70CD024
:10E1200016C76ECF6BBFFA01DC0102C007900D92DB
:10E1300021503040D8F70895CF93DF93CDB7DEB7A5
:10E1400010920D0210920E028FEF9FE0EAD680939C
:10E15000010280910102853A11F40C940000E5E57A
:10E16000F0E081E0808382E08083A7D38091000289
:10E17000CED38BEC90EF13D48BEE90EF23D4789426
:10E1800080910D02882331F0F89410920D0278945A
:10E1900041D0F6CFF5CFCF93DF9300D01F92CDB70C
:10E1A000DEB79A8389837C836B832B813C81898151
:10E1B0009A81A901BC018EE792E0AAD68B81809357
:10E1C0007D0281E080930D020F900F900F900F90D1
:10E1D000DF91CF910895CF93DF93CDB7DEB79091C4
:10E1E0000E0281E08927882351F060E080E025D38A
:10E1F00080917D02682F8EE792E099D308C08091CC
:10E200007D02682F8EE792E092D310920E02DF918A
:10E21000CF910895CF93DF931F92CDB7DEB7809152
:10E220007E028B3109F036C080917D02882F90E00C
:10E230000197BC018EE792E008D2898380917D022C
:10E24000882F90E0019782589D4FFC019081898131
:10E25000981701F5809182028E30E1F480917F025F
:10E260008093020280918002882F90E0382F22272D
:10E2700080918102882F90E0820F931F9093040277
:10E28000809303028091030290910402BC0183E811
:10E2900092E014D20F90DF91CF910895CF93DF9346
:10E2A00000D01F92CDB7DEB79A8389837C836B83BE
:10E2B00010920502109206021092070210920802B4
:10E2C00060E082E1BAD281E00F900F900F900F9042
:10E2D000DF91CF910895CF93DF93CDB7DEB7A097AD
:10E2E0000FB6F894DEBF0FBECDBF9E8F8D8F78A383
:10E2F0006F8F8D8D9E8D0196FC018081882F90E01F
:10E30000382F22278D8D9E8D0296FC018081882FCB
:10E3100090E0822B932B9A8789878D8D9E8D0A960C
:10E320009C878B8760EC82E188D280910902909172
:10E330000A02A0910B02B0910C020097A105B10551
:10E3400029F465EA8FEF9FE0F4D51FC01EC08091CD
:10E35000050290910602A0910702B0910802BC014B
:10E36000CD01F3D48091050290910602A09107029D
:10E37000B09108029F5FAF4FBF4F8093050290930B
:10E380000602A0930702B093080289859A859C0132
:10E3900040E050E08091090290910A02A0910B02A6
:10E3A000B0910C02280F391F4A1F5B1F8091050294
:10E3B00090910602A0910702B0910802821793077C
:10E3C000A407B50780F48091050290910602A09100
:10E3D0000702B09108028130FFEE9F07F1E0AF071E
:10E3E000B10508F4B4CF1A82198280910902909184
:10E3F0000A02A0910B02B0910C028B839C83AD8327
:10E40000BE8318861F8258C02B853C858F819885D6
:10E41000820F931FFC0140819E01235F3F4F898142
:10E420009A81820F931FFC01408380910902909191
:10E430000A02A0910B02B0910C020196A11DB11D20
:10E440008093090290930A02A0930B02B0930C02EE
:10E4500089819A8101969A8389838091090290919A
:10E460000A02A0910B02B0910C028F709927AA2783
:10E47000BB270097A105B105D1F429813A818B8191
:10E480009C81AD81BE81FE013D96AC01BD01CF01F5
:10E490009DD48091090290910A02A0910B02B09143
:10E4A0000C028B839C83AD83BE831A8219828F8179
:10E4B0009885019698878F832F81388589859A85DD
:10E4C0002817390708F4A0CF89819A81009761F055
:10E4D00029813A818B819C81AD81BE81FE013D966F
:10E4E000AC01BD01CF0172D460E083E1A6D181E02F
:10E4F000A0960FB6F894DEBF0FBECDBFDF91CF91CF
:10E5000008950F931F93CF93DF93CDB7DEB729976D
:10E510000FB6F894DEBF0FBECDBF9F838E83798781
:10E52000688719828E819F810196FC018081882FE6
:10E5300090E0382F22278E819F810296FC018081F6
:10E54000882F90E0822B932B9D838C838C819D81DF
:10E550008131910508F06DC081E089831B821A82A8
:10E5600023C08A819B819C0140E050E08091090298
:10E5700090910A02A0910B02B0910C02820F931F9E
:10E58000A41FB51F2A813B81295F3F4FF901E25843
:10E59000FD4F21E030E0AC01BD01CF01C3DD8A8138
:10E5A0009B8101969B838A832A813B818C819D81FB
:10E5B00028173907B0F28C819D819C0140E050E022
:10E5C0008091090290910A02A0910B02B0910C0275
:10E5D000820F931FA41FB51F8093090290930A0214
:10E5E000A0930B02B0930C028C819D8146D184E1F3
:10E5F00080938302109284028C819D8107968258B9
:10E600009D4FFC0110828C819D818C01085F1F4F02
:10E610008C819D810796BC018EE792E016D0282F51
:10E62000C80182589D4FFC0120838C81875F8093B5
:10E630007D02898129960FB6F894DEBF0FBECDBF4B
:10E64000DF91CF911F910F910895CF93DF93CDB7B5
:10E65000DEB727970FB6F894DEBF0FBECDBF9D8300
:10E660008C837F836E838C819D81FC0180818B8371
:10E6700081E090E09A83898310C02C813D8189815B
:10E680009A81820F931FFC0180819B8189278B8354
:10E6900089819A8101969A83898329813A818E8121
:10E6A0009F812817390748F38B8127960FB6F89476
:10E6B000DEBF0FBECDBFDF91CF910895CF93DF9323
:10E6C00000D01F92CDB7DEB79A8389837C836B839A
:10E6D00089819A81FC018081882F90E082319105A7
:10E6E00071F08331910524F48630910589F02BC0B7
:10E6F00083319105B1F084319105E1F024C02B8183
:10E700003C8189819A81B901C9DD80930E021EC0C6
:10E710002B813C8189819A81B9011FD080930E029F
:10E7200015C02B813C8189819A81B901D4DD809308
:10E730000E020CC02B813C8189819A81B901E1DEF6
:10E7400080930E0203C010920E0200000F900F90F3
:10E750000F900F90DF91CF910895CF93DF9300D06A
:10E760001F921F92CDB7DEB79B838A837D836C8314
:10E7700019828A819B810196FC018081882F90E01B
:10E78000A0E0B0E0582F4427332722278A819B81BD
:10E790000296FC018081882F90E0A0E0B0E0DC01CF
:10E7A00099278827282B392B4A2B5B2B8A819B8121
:10E7B0000396FC018081882F90E0A0E0B0E0BA2FA2
:10E7C000A92F982F8827282B392B4A2B5B2B8A813E
:10E7D0009B810496FC018081882F90E0A0E0B0E04E
:10E7E000822B932BA42BB52B8093090290930A02C2
:10E7F000A0930B02B0930C028091090290910A023F
:10E80000A0910B02B0910C028115F0EE9F07F3E08E
:10E81000AF07B10530F460E086E00FD081E0898376
:10E8200003C060EC86E009D089810F900F900F90B3
:10E830000F900F90DF91CF910895CF93DF931F92A8
:10E840001F92CDB7DEB789836A8382E090E015D04E
:10E850008981809383028A818093840267E070E0DB
:10E860008EE792E0F2DE8093850288E080937D025D
:10E870000F900F90DF91CF910895CF93DF931F9268
:10E880001F92CDB7DEB79A8389838BE180937E0296
:10E890008091020280937F0289819A81892F992732
:10E8A000809380028981809381028EE0809382022E
:10E8B0000F900F90DF91CF910895CF93DF93CDB755
:10E8C000DEB710920F0281E08093110210921202C3
:10E8D00089EB90E029EB30E0F90120812E7FFC01EB
:10E8E000208389EB90E029EB30E0F90120812D7F36
:10E8F000FC01208388EB90E028E4FC0120838CEB72
:10E9000090E025E4FC012083DF91CF910895CF931F
:10E91000DF931F92CDB7DEB789838AEB90E0298120
:10E92000220FFC0120830F90DF91CF910895CF93A8
:10E93000DF9300D01F92CDB7DEB79B838A836C83B1
:10E940008C81813210F081E023C080910F028430ED
:10E9500011F082E01DC08C8180935A02198213C08D
:10E960008981882F90E02981222F30E04A815B81C4
:10E97000240F351FF9012081875C9D4FFC01208306
:10E9800089818F5F898399818C81981748F380E012
:10E990000F900F900F900F90DF91CF910895CF932C
:10E9A000DF931F921F92CDB7DEB79A838983898147
:10E9B0009A8190931602809315020F900F90DF9129
:10E9C000CF910895CF93DF931F921F92CDB7DEB7FB
:10E9D0009A83898389819A81909314028093130288
:10E9E0000F900F90DF91CF910895CF93DF931F92F7
:10E9F000CDB7DEB789838981882331F08CEB90E035
:10EA000025ECFC01208305C08CEB90E025E8FC019F
:10EA100020830F90DF91CF910895CF93DF93CDB7EF
:10EA2000DEB78CEB90E025EDFC01208301C00000F7
:10EA30008CEB90E0FC018081882F90E08071992719
:10EA40000097A9F710920F02DF91CF910895CF930D
:10EA5000DF93CDB7DEB78CEB90E025ECFC01208393
:10EA600010920F02DF91CF9108951F920F920090A4
:10EA70005F000F92112400905B000F922F933F9341
:10EA80004F935F936F937F938F939F93AF93BF93B6
:10EA9000EF93FF93CF93DF931F92CDB7DEB789EB50
:10EAA00090E0FC018081887F89838981882F90E0B4
:10EAB0008837910509F4B3C089379105C4F58832C8
:10EAC000910509F472C089329105C4F48031910531
:10EAD00009F462C08131910544F4009709F419C129
:10EAE0008830910509F458C018C18831910509F49E
:10EAF0005CC08032910509F483C00FC18036910556
:10EB000009F48DC0813691054CF48033910509F4E8
:10EB10007CC08833910509F47DC0FFC0883691051B
:10EB200009F47DC08037910509F479C0F6C0883AB0
:10EB3000910509F4B7C0893A9105CCF48039910563
:10EB400009F475C0813991054CF48038910509F4B8
:10EB50006EC08838910509F4A2C0DFC088399105DC
:10EB600009F49DC0803A910509F47BC0D6C0803C71
:10EB7000910509F4C9C0813C91054CF4803B910595
:10EB800009F490C0883B910509F4A2C0C6C0883C36
:10EB9000910509F4B9C0C1C08BEB90E0209110023F
:10EBA000FC01208381E021DFB8C090913702809181
:10EBB0003802981798F48BEB90E02091370231E0FF
:10EBC000320F30933702222F30E0295E3D4FF9019A
:10EBD0002081FC01208381E008DF11C080911102B7
:10EBE000882311F01ADF0BC081E0809312028CEBB6
:10EBF00090E024EAFC01208310920F028EC08DC0A9
:10EC000080E280937C0209DF88C080E380937C02ED
:10EC100004DF83C088E380937C0219DF7EC083E039
:10EC200080930F0210927B0281E0DFDE76C080913C
:10EC30007B02803298F480917B0291E0980F909350
:10EC40007B02882F90E02BEB30E0F9012081855A80
:10EC50009D4FFC01208381E0C8DE5FC080E0C5DEFF
:10EC60005CC080917B02803240F480917B02882FCF
:10EC700090E0855A9D4FFC011082CFDE2091150255
:10EC80003091160280917B02882F90E0BC018BE5C9
:10EC900092E0F901199510927B02D9DE3EC080E026
:10ECA000A4DE3BC084E080930F02109259021092C0
:10ECB0005A028091130290911402FC0119958091DF
:10ECC0005A02882329F481E080935A021092390273
:10ECD0008BEB90E02091590231E0320F30935902D2
:10ECE000222F30E0275C3D4FF9012081FC01208379
:10ECF0009091590280915A02981718F481E075DEBC
:10ED00000CC080E072DE09C081E06FDE10920F025D
:10ED100004C010927C0281DE00000F90DF91CF9141
:10ED2000FF91EF91BF91AF919F918F917F916F91E3
:10ED30005F914F913F912F910F9000925B000F9048
:10ED400000925F000F901F901895CF93DF9300D033
:10ED50001F921F92CDB7DEB76A837B838C839D831E
:10ED60008FE590E0FC0180818983F8948FE390E047
:10ED7000FC018081882F90E0827099270097B1F77D
:10ED800023E08A819B81AC81BD81FC01A0935B0063
:10ED900020935700E89587E590E0FC018081882F5B
:10EDA00090E0817099270097B1F781E18093570037
:10EDB000E8958FE590E02981FC0120830F900F906A
:10EDC0000F900F900F90DF91CF910895CF93DF9325
:10EDD000CDB7DEB767970FB6F894DEBF0FBECDBFD5
:10EDE000998B888B4A8B5B8B6C8B7D8B3F8B2E8BAF
:10EDF0008A899B89AC89BD898D839E83AF83B887BF
:10EE0000888999899C838B838E899F899A8389833A
:10EE10008FE590E0FC0180818987F8948FE390E092
:10EE2000FC018081882F90E0827099270097B1F7CC
:10EE300043C08B819C819C012F5F3F4F3C832B8380
:10EE4000FC018081882F90E09B878A878B819C8141
:10EE50009C012F5F3F4F3C832B83FC018081882FD7
:10EE600090E09D878C878C859D85382F22278A8509
:10EE70009B85822B932B9F878E8741E08A899B8974
:10EE8000AC89BD892E853F850901FC01A0935B00FB
:10EE900040935700E89511248A899B89AC89BD89E4
:10EEA0000296A11DB11D8A8B9B8BAC8BBD8B89817A
:10EEB0009A8102979A83898389819A81009709F0C0
:10EEC000B8CF25E08D819E81AF81B885FC01A093EC
:10EED0005B0020935700E89587E590E0FC01808176
:10EEE000882F90E0817099270097B1F781E1809396
:10EEF0005700E8958FE590E02985FC01208367960F
:10EF00000FB6F894DEBF0FBECDBFDF91CF9108954D
:10EF1000FB01DC0102C001900D9241505040D8F736
:10EF20000895F999FECF92BD81BDF89A992780B5D1
:10EF30000895262FF999FECF1FBA92BD81BD20BD3D
:10EF40000FB6F894FA9AF99A0FBE01960895F894BC
:02EF5000FFCFF1
:02EF520003FFBB
:040000033000E000E9
:00000001FF
