:107000002CC1000045C1000043C1000041C1000087
:107010003FC100003DC100003BC1000039C100007C
:1070200037C1000035C1000033C1000031C100008C
:107030002FC100002DC100002BC1000029C100009C
:1070400027C1000025C1000023C1000021C10000AC
:107050001FC100001DC100001BC1000019C10000BC
:107060001FC5000015C100007E3E823E823E823E6A
:10707000823E823E823E823E823D823E823E823E11
:10708000823E823E823E823E823D823E823E823E01
:10709000823E823E823E823E8B3D823E823E823EE8
:1070A000823E823E823E823EB63D823E823E823EAD
:1070B000823E823E823E823E8B3D823E823E823EC8
:1070C000823E823E823E823EBB3D823E823E823E88
:1070D000823E823E823E823EC03D823E823E823E73
:1070E000823E823E823E823ED53D823E823E823E4E
:1070F000823E823E823E823E023E823E823E823E10
:10710000823E823E823E823EC53D823E823E823E3D
:10711000823E823E823E823EE13D823E823E823E11
:10712000823E823E823E823E043E823E823E823EDD
:10713000823E823E823E823E043E823E823E823ECD
:10714000823E823E823E823E043E823E823E823EBD
:10715000823E823E823E823E043E823E823E823EAD
:10716000823E823E823E823E0C3E823E823E823E95
:10717000823E823E823E823E443E823E823E823E4D
:10718000823E823E823E823E0C3E823E823E823E75
:10719000823E823E823E823E443E823E823E823E2D
:1071A000823E823E823E823E263E823E823E823E3B
:1071B000823E823E823E823E473E823E823E823E0A
:1071C000823E823E823E823E473E823E823E823EFA
:1071D000823E823E823E823E5D3E823E823E823ED4
:1071E000823E823E823E823E793E823E823E823EA8
:1071F000823E823E823E823E793E823E823E823E98
:10720000823E823E823E823E823E823E823E823E7E
:10721000823E823E823E823E823E823E823E823E6E
:10722000823E823E823E823E823E823E823E823E5E
:10723000823E823E823E823E823E823E823E823E4E
:10724000823E823E823E823E823E823E823E823E3E
:10725000823E823E823E823E823E11241FBECFEF9E
:10726000D8E0DEBFCDBF11E0A0E0B1E0EAE1FFE78A
:1072700002C005900D92A230B107D9F721E0A2E03B
:10728000B1E001C01D92AE3CB207E1F702D043C6A7
:10729000B7CECF93DF93CDB7DEB784E290E024E2A0
:1072A00030E0F90120812160FC01208310920D0162
:1072B00010920E018FEF93E018D680930101809118
:1072C0000101853A11F40C940000E5E5F0E081E05D
:1072D000808382E080830ED38091000135D381E8E2
:1072E00099E37AD381EA99E389D3789480910D0167
:1072F000882331F0F89410920D01789441D0F6CFA4
:10730000F5CFCF93DF9300D000D0CDB7DEB79A830F
:1073100089837C836B832B813C8189819A81A9013C
:10732000BC018EE791E0D8D58B8180937D0181E00F
:1073300080930D010F900F900F900F90DF91CF91E0
:107340000895CF93DF93CDB7DEB790910E0181E022
:107350008927882351F060E080E08ED280917D0102
:10736000682F8EE791E000D308C080917D01682FDF
:107370008EE791E0F9D210920E01DF91CF9108953E
:10738000CF93DF931F92CDB7DEB780917E018B3113
:1073900009F036C080917D01882F90E00197BC01F3
:1073A0008EE791E072D1898380917D01882F90E0F2
:1073B000019782589E4FFC0190818981981701F5B1
:1073C000809182018E30E1F480917F0180930201EF
:1073D00080918001882F90E0382F222780918101B1
:1073E000882F90E0820F931F9093040180930301F4
:1073F0008091030190910401BC0183E891E07ED16A
:107400000F90DF91CF910895CF93DF9300D000D0FC
:10741000CDB7DEB79A8389837C836B831092050195
:1074200010920601109207011092080160E082E1BB
:1074300023D281E00F900F900F900F90DF91CF91AA
:107440000895CF93DF93CDB7DEB728970FB6F894A2
:10745000DEBF0FBECDBF9E838D8378876F838D8106
:107460009E810196FC018081882F90E0382F222791
:107470008D819E810296FC018081882F90E0822B75
:10748000932B9A8389838D819E810A969C838B831B
:107490001DC08091050190910601A0910701B09156
:1074A000080145D48091050190910601A091070142
:1074B000B091080180589F4FAF4FBF4F8093050197
:1074C00090930601A0930701B093080189819A81E6
:1074D0009C0140E050E08091090190910A01A09147
:1074E0000B01B0910C01280F391F4A1F5B1F8091BF
:1074F000050190910601A0910701B0910801821742
:107500009307A407B50778F48091050190910601CF
:10751000A0910701B09108018138F7E39F07A10509
:10752000B10508F4B6CF8091090190910A01A091AC
:107530000B01B0910C019C0149815A818B819C8186
:10754000B9012DD460E083E197D180910901909138
:107550000A01A0910B01B0910C010097A105B105A2
:1075600021F465EA8FEF93E0C8D481E028960FB646
:10757000F894DEBF0FBECDBFDF91CF9108950F937A
:107580001F93CF93DF93CDB7DEB727970FB6F8944D
:10759000DEBF0FBECDBF9D838C837F836E83198238
:1075A0008C819D810196FC018081882F90E0382F8D
:1075B00022278C819D810296FC018081882F90E09A
:1075C000822B932B9B838A838A819B8181319105B6
:1075D00008F04FC081E089838091090190910A01F0
:1075E000A0910B01B0910C012A813B81A901BC0142
:1075F00085E891E068D48A819B819C0140E050E05D
:107600008091090190910A01A0910B01B0910C01A8
:10761000820F931FA41FB51F8093090190930A0145
:10762000A0930B01B0930C018A819B8144D184E12A
:1076300080938301109284018A819B8107968258EE
:107640009E4FFC0110828A819B818C01085F1F4F35
:107650008A819B810796BC018EE791E016D0282F86
:10766000C80182589E4FFC0120838A81875F8093E6
:107670007D01898127960FB6F894DEBF0FBECDBF7E
:10768000DF91CF911F910F910895CF93DF93CDB7E5
:10769000DEB727970FB6F894DEBF0FBECDBF9D8330
:1076A0008C837F836E838C819D81FC0180818B83A1
:1076B00081E090E09A83898310C02C813D8189818B
:1076C0009A81820F931FFC0180819B8189278B8384
:1076D00089819A8101969A83898329813A818E8151
:1076E0009F812817390748F38B8127960FB6F894A6
:1076F000DEBF0FBECDBFDF91CF910895CF93DF9353
:1077000000D000D0CDB7DEB79A8389837C836B83AA
:1077100089819A81FC018081882F90E082319105D6
:1077200071F08331910524F48630910589F02BC0E6
:1077300083319105B1F084319105E1F024C02B81B2
:107740003C8189819A81B9015FDE80930E011EC060
:107750002B813C8189819A81B9011FD080930E01D0
:1077600015C02B813C8189819A81B9016ADE8093A1
:107770000E010CC02B813C8189819A81B901FFDE09
:1077800080930E0103C010920E0100000F900F9025
:107790000F900F90DF91CF910895CF93DF9300D09A
:1077A00000D01F92CDB7DEB79B838A837D836C8325
:1077B00019828A819B810196FC018081882F90E04B
:1077C000A0E0B0E0582F4427332722278A819B81ED
:1077D0000296FC018081882F90E0A0E0B0E0DC01FF
:1077E00099278827282B392B4A2B5B2B8A819B8151
:1077F0000396FC018081882F90E0A0E0B0E0BA2FD2
:10780000A92F982F8827282B392B4A2B5B2B8A816D
:107810009B810496FC018081882F90E0A0E0B0E07D
:10782000822B932BA42BB52B8093090190930A01F3
:10783000A0930B01B0930C018091090190910A0172
:10784000A0910B01B0910C018115F0E79F07A105F4
:10785000B10530F460E086E00FD081E0898303C099
:1078600060EC86E009D089810F900F900F900F9007
:107870000F90DF91CF910895CF93DF9300D0CDB7D4
:10788000DEB789836A8382E090E015D08981809396
:1078900083018A818093840167E070E08EE791E044
:1078A000F4DE8093850188E080937D010F900F9036
:1078B000DF91CF910895CF93DF9300D0CDB7DEB79E
:1078C0009A8389838BE180937E018091020180936A
:1078D0007F0189819A81892F9927809380018981ED
:1078E000809381018EE0809382010F900F90DF9151
:1078F000CF910895CF93DF93CDB7DEB710920F01EC
:1079000081E0809311011092120189EB90E029EB44
:1079100030E0F90120812E7FFC01208389EB90E08B
:1079200029EB30E0F90120812D7FFC01208388EBD9
:1079300090E028E4FC0120838CEB90E025E4FC013E
:107940002083DF91CF910895CF93DF931F92CDB71E
:10795000DEB789838AEB90E02981220FFC01208326
:107960000F90DF91CF910895CF93DF9300D000D097
:10797000CDB7DEB79B838A836C838C81813210F014
:1079800081E023C080910F01843011F082E01DC09E
:107990008C8180935A01198213C08981882F90E0CD
:1079A0002981222F30E04A815B81240F351FF901A4
:1079B0002081875C9E4FFC01208389818F5F8983B2
:1079C00099818C81981748F380E00F900F900F9069
:1079D0000F90DF91CF910895CF93DF9300D0CDB773
:1079E000DEB79A83898389819A8190931601809367
:1079F00015010F900F90DF91CF910895CF93DF93F2
:107A000000D0CDB7DEB79A83898389819A8190931C
:107A10001401809313010F900F90DF91CF9108957F
:107A2000CF93DF931F92CDB7DEB7898389818823F7
:107A300031F08CEB90E025ECFC01208305C08CEB51
:107A400090E025E8FC0120830F90DF91CF9108950D
:107A5000CF93DF93CDB7DEB78CEB90E025EDFC0143
:107A6000208301C000008CEB90E0FC018081882F16
:107A700090E0807199270097A9F710920F01DF918C
:107A8000CF910895CF93DF93CDB7DEB78CEB90E025
:107A900025ECFC01208310920F01DF91CF91089516
:107AA0001F920F9200905F000F9211242F933F932B
:107AB0004F935F936F937F938F939F93AF93BF93F6
:107AC000EF93FF93CF93DF931F92CDB7DEB789EB90
:107AD00090E0FC018081887F89838981882F90E0F4
:107AE000AA2797FDA095BA2F40E050E028EF30E09C
:107AF000841B950B2817390708F404C18C5C974C3C
:107B0000FC01DBC18BEB90E020911001FC01208394
:107B100081E086DFF7C09091370180913801981796
:107B200098F48BEB90E02091370131E0320F3093E5
:107B30003701222F30E0295E3E4FF9012081FC0100
:107B4000208381E06DDF11C080911101882311F045
:107B50007FDF0BC081E0809312018CEB90E024EA80
:107B6000FC01208310920F01CDC0CCC080E2809335
:107B70007C016EDFC7C080E380937C0169DFC2C0F7
:107B800088E380937C017EDFBDC08091370191E066
:107B9000980F90933701882F90E02BEB30E0F9019C
:107BA0002081895E9E4FFC01208390913701809156
:107BB0003801981718F481E033DFA4C080E030DF8B
:107BC000A1C08091370191E0980F90933701882FE1
:107BD00090E02BEB30E0F9012081895E9E4FFC01A3
:107BE000208380911101882311F032DF8BC081E066
:107BF000809312018CEB90E024EAFC012083109228
:107C00000F0180C025DF7EC083E080930F011092BA
:107C10007B0181E005DF76C080917B01803298F4A2
:107C200080917B0191E0980F90937B01882F90E0E9
:107C30002BEB30E0F9012081855A9E4FFC01208317
:107C400081E0EEDE5FC080E0EBDE5CC080917B0116
:107C5000803240F480917B01882F90E0855A9E4FBE
:107C6000FC011082F5DE2091150130911601809102
:107C70007B01882F90E0BC018BE591E0F90109952B
:107C800010927B01FFDE3EC080E0CADE3BC084E094
:107C900080930F011092590110925A0180911301A3
:107CA00090911401FC01099580915A01882329F4CF
:107CB00081E080935A01109239018BEB90E0209182
:107CC000590131E0320F30935901222F30E0275C07
:107CD0003E4FF9012081FC01208390915901809150
:107CE0005A01981718F481E09BDE0CC080E098DE02
:107CF00009C081E095DE10920F0104C010927C0152
:107D0000A7DE00000F90DF91CF91FF91EF91BF911F
:107D1000AF919F918F917F916F915F914F913F9123
:107D20002F910F9000925F000F901F901895CF93A6
:107D3000DF9300D01F92CDB7DEB79B838A838FE598
:107D400090E0FC0180818983F8948FE390E0FC014E
:107D50008081882F90E0827099270097B1F723E007
:107D60008A819B81FC0120935700E89587E590E08C
:107D7000FC018081882F90E0817099270097B1F7EE
:107D800081E180935700E8958FE590E02981FC011F
:107D900020830F900F900F90DF91CF910895CF9394
:107DA000DF93CDB7DEB763970FB6F894DEBF0FBE93
:107DB000CDBF9F878E87798B688B5B8B4A8B888939
:107DC00099899E838D838E859F859C838B838A89E9
:107DD0009B899A8389838FE590E0FC0180818F8362
:107DE000F8948FE390E0FC018081882F90E082700E
:107DF00099270097B1F739C08B819C819C012F5F37
:107E00003F4F3C832B83FC018081882F90E0998732
:107E100088878B819C819C012F5F3F4F3C832B8304
:107E2000FC018081882F90E09B878A878A859B85CB
:107E3000382F222788859985822B932B9D878C87C5
:107E400041E0888999892C853D85FC010901409391
:107E50005700E8951124888999890296998B888B17
:107E600089819A8102979A83898389819A8100976F
:107E700009F0C2CF25E08D819E81FC01209357003F
:107E8000E89587E590E0FC018081882F90E0817083
:107E900099270097B1F781E180935700E8958FE526
:107EA00090E02F81FC01208363960FB6F894DEBF2B
:107EB0000FBECDBFDF91CF910895EE0FFF1F05904C
:107EC000F491E02D0994FB01DC0102C005900D92B4
:107ED00041505040D8F70895FB01DC0102C00190E9
:107EE0000D9241505040D8F70895F999FECF92BDB8
:107EF00081BDF89A992780B50895262FF999FECF6C
:107F00001FBA92BD81BD20BD0FB6F894FA9AF99AB6
:0A7F10000FBE01960895F894FFCF0C
:027F1A0004FF62
:040000030000700089
:00000001FF
